:020000040800F2
:10000000F84A0020AD010008332A0008951D0008B9
:10001000312A0008D10C0008AF2E000800000000B3
:10002000000000000000000000000000652A000839
:10003000E90C000800000000352A0008752A0008B5
:10004000C7010008C7010008C7010008C701000870
:10005000C7010008C7010008C7010008C701000860
:10006000C7010008C7010008C7010008C701000850
:10007000C7010008C7010008C7010008C701000840
:10008000C7010008C7010008C70100080000000000
:10009000000000000000000000000000F30C000859
:1000A000C70100081D2B0008C7010008C701000890
:1000B000C7010008C7010008C7010008C701000800
:1000C000C7010008C7010008C7010008C7010008F0
:1000D000C7010008C7010008C701000800000000B0
:1000E000EB0C0008C7010008C70100080000000071
:1000F000000000000000000000000000C701000830
:1001000000000000C7010008C7010008C70100087F
:1001100000000000000000000000000000000000DF
:10012000C7010008C7010008C7010008C70100088F
:10013000C7010008000000000000000000000000EF
:10014000000000000000000000000000C7010008DF
:10015000C7010008C7010008C7010008C70100085F
:10016000C7010008C70100080000000000000000EF
:10017000000000000000000000000000000000007F
:1001800000000000C701000800000000000000009F
:10019000C7010008DFF810D000F0B2FA00480047AD
:1001A00065390008AFF30080F84A00200648804710
:1001B00006480047FEE7FEE7FEE7FEE7FEE7FEE74C
:1001C000FEE7FEE7FEE7FEE70D2B000895010008BD
:1001D0002DE9F05F0546002092469B46884606467C
:1001E000814640241BE0284641464746224600F00F
:1001F00070F853465A46C01A914110D3114618461A
:10020000224600F057F82D1A67EB01084F462246A8
:100210000120002100F04EF817EB00094E41201E8E
:10022000A4F10104DFDC484631462A464346BDE8D6
:10023000F09F40EA01039B0703D009E008C9121FA1
:1002400008C0042AFAD203E011F8013B00F8013B90
:10025000521EF9D27047D2B201E000F8012B491EBC
:10026000FBD270470022F6E710B513460A46044653
:100270001946FFF7F0FF204610BD421C10F8011B85
:100280000029FBD1801A704730B50B46014600208B
:100290002022012409E021FA02F59D4205D303FA48
:1002A00002F5491B04FA02F52844151EA2F10102C9
:1002B000F1DC30BD202A04DB203A00FA02F10020F4
:1002C00070479140C2F1200320FA03F31943904094
:1002D0007047202A04DB203A21FA02F000217047FF
:1002E00021FA02F3D040C2F120029140084319469E
:1002F000704700000FB4002300B589B00CA900912D
:100300000B996FF00042CB601E4B06931E4B079378
:100310000423CDE901321D4A089202466B460020B3
:1003200000F0ACFA09B05DF814FB70B586B0064673
:100330004FF0FF300091CDE90101002015460C4639
:1003400004903246694604A8FFF7D4FF0246049899
:10035000211825B108B1084600E02046286004981D
:1003600000280DD0002A02DD0098884208D0081B22
:100370000094CDE901043246694604A8FFF7BAFFAC
:1003800006B070BDB50A0008D30A00084907000886
:100390002DE9FE4F804681EA0300C00F0C46009015
:1003A00021F0004123F00045B8EB0200A94105D23D
:1003B0004046214690461C460B46024623F000402C
:1003C000104347D0270DC7F30A00C3F30A51029028
:1003D000401A019040286BDAC3F3130040F4801BED
:1003E0000098924620B10023D2EB030A63EB0B0B7B
:1003F00001985946C0F140025046FFF75BFF0646A0
:100400000D4650465946019A00F08CF910EB080051
:100410006141002487EA115284EAE7731A4340D00D
:10042000009A62B3019A012A4FEA075215DC001BB9
:1004300061EB02014FF0004202EA0752CDE90042AF
:10044000001C41F5801132462B4600F062FB03B0E0
:10045000BDE8F08F40462146F9E7001B61EB020141
:10046000001C41F5801300185B412018A2F500170D
:1004700047EB030140EAD570B6196D4111E06D08F4
:100480004FEA360645EAC0754FEA0752001B61EB9A
:100490000201001C41F5801149084FEA30000019A3
:1004A000514132462B4603B0BDE8F04F00F022BB6D
:1004B0000098012240000023D0EB020263EBE073BE
:1004C000009821464FEAE074B8EB000061EB0401AC
:1004D000E9E783F000435BE781F0004158E72DE94D
:1004E000FE4F81EA030404F0004421F0004100942F
:1004F0004FF0000B23F0004350EA01045ED052EAB3
:1005000003045BD0C3F30A54C1F30A552C44A4F28C
:10051000F3340194A0FB0254C1F3130141F48011A0
:10052000C3F3130343F4801301FB024400FB034EA7
:10053000840A970A44EA815447EA8357A4FB076870
:1005400002958D0A05FB07854FEA932C04FB0C549A
:100550002705029D4FEA065847EA1637B5EB08050E
:100560006EEB070C870E920E47EA811742EA831260
:10057000A7FB0201B6EB0B0164EB00042B0D43EA71
:100580000C335E1844EB1C50DA465146E7FB02017F
:10059000C5F313044FEA0B3343EA14534FEA043212
:1005A000019C43EA0603A4F10C040294009CCDE9EB
:1005B00000B400F0AEFA03B0BDE8F08F00200146B1
:1005C000F9E72DE9F04D81EA030404F0004B21F036
:1005D000004514464FF0000A23F0004150EA05029E
:1005E00020D054EA01021DD0C5F30A570246C5F3D4
:1005F0001303C1F31300C1F30A5640F4801543F40A
:100600008013A7EB0608101BD64608F2FD3873EBE3
:10061000050002D308F1010801E092185B41B8F12E
:10062000000F03DA00200146BDE8F08D00204FF4F2
:100630008011064684460EE0171B73EB050705D3B1
:10064000121B63EB050306434CEA010C49084FEA11
:10065000300092185B4150EA0107EDD152EA0300E5
:1006600012D082EA040083EA0501084305D0101B7A
:10067000AB4106D20122002306E000224FF00043E6
:1006800002E06FF0010253101AEB06004CEB085128
:1006900010EB0A0041EB0B01BDE8F04D00F02ABA67
:1006A000C1F30A52C1F3130140F2FF3341F4801148
:1006B0009A4202DA00200146704740F233439A42E0
:1006C000A2F2334202DC5242FFF703BEFFF7F2BD53
:1006D00030B5041E71F1000404DB4FF000444042C9
:1006E00064EB0101141E73F1000405DB1C464FF09E
:1006F0000043524263EB0403994208BF904230BD6D
:10070000064C074D06E0E06840F0010394E807005E
:1007100098471034AC42F6D3FFF740FDF845000887
:1007200018460008202A06DBCB17203A41FA02F0CF
:1007300043EAE07306E041FA02F3D040C2F120023E
:100740009140084319467047C0B24FF4F05100F091
:100750002FBA00002DE9FF4F087883B09946FF2893
:1007600005D0491C2D2804D00024002008E00020DA
:100770000BE00124F9E700EB800003EB4000491C8B
:100780000B78FF2BF7D104B1404200230293147879
:1007900019461D462D2C01D02B2C04D1521C2D2C7A
:1007A00013D000240294AA461478FF2C0FD00A25F7
:1007B000A3FB057801FB05814FF0000C03FB0C1136
:1007C000521CE3194AEB0101EEE70124EAE78144F8
:1007D00053EA010002D019F5C87F06DA0398002118
:1007E000C0E9001107B0BDE8F08F0025AE4E2F46DE
:1007F000DFF8B882184600F0EFF9CDE90001B9F151
:10080000000002DAC9F1000400E004460023A74A10
:100810001AEB030B42EB045A12E0E00707D02A461A
:10082000334638464146FFF75AFE074688462A4671
:10083000334610461946FFF752FE05460E46641031
:10084000002CEAD1DDE90001B9F1000F5A46534608
:1008500006DAFFF7B6FE3A464346FFF7B2FE05E07A
:10086000FFF73DFE3A464346FFF739FE029A0AB1CA
:1008700081F00041039AC2E90001B3E72DE9FF4F7F
:100880001F468DB0D7E901464FF0FF382E20454670
:100890004FF000090B90B9696D1C0E988847396AB2
:1008A000824688470028F6D1BAF1FF3F0AD024F4E7
:1008B000D064002E11DDBAF12B0F08D0BAF12D0F44
:1008C0000BD102E0404611B08DE744F48064B96971
:1008D0006D1C0E9888478246761E6946600501D5D4
:1008E0002D2000E02B208DF8000001F1010B0DF10F
:1008F000200809E0B9696D1C0E98884782460F9858
:1009000044F40074761E0560002E02DDBAF1300F4B
:10091000F0D00B998A453ED144F0800406E00F994F
:10092000681CA9F1010944F400740860B9696D1CE0
:10093000761E0E98884782463028F0D02BE00B991F
:100940008A4505D1200603D444F08004761E18E0C1
:10095000504602F0C7FB08B30DF11301761E44F4B4
:1009600000748B4508D2AAF130000BF8010B200669
:1009700007D5A9F1010003E0200602D409F1010026
:100980008146A00502D50F99681C0860B9696D1CE5
:100990000E9888478246002ED1DC53E0002E51DDB0
:1009A000BAF1650F02D0BAF1450F4BD1A00549D578
:1009B000B9696D1C24F44074761E0E9888478246EF
:1009C000002E0CDD2B2804D0BAF12D0F07D144F4F2
:1009D0008074B9696D1C0E9888478246761EE005C2
:1009E00001D52D2100E02B2108F8011BCDF82C802A
:1009F00021E00DF12901761E44F4007488450CD2E3
:100A0000AAF1300010F0FF0088F8000002D10B9925
:100A1000884509D908F1010806E0E00501D5244818
:100A200001E042F20F708146B9696D1C0E9888474B
:100A300082460F980560002E04DD504602F052FBFE
:100A40000028D6D1F9690E988847FF208BF800005E
:100A500088F800000020069007904B466A4608A9D7
:100A600006A8FFF777FEA00502D46FF001002AE781
:100A700014F0240F0AD0E00714D1DDE9061238681B
:100A8000031D3B600068C0E900120BE0DDE90601D0
:100A900000F0AEF80146E00704D13868021D3A6064
:100AA0000068016028460EE7000014400000F03F97
:100AB000F1D8FFFF426842B1016811F8013B23B150
:100AC000521EC0E90012184670470121C160881EFD
:100AD000704742685AB1C368016843B983688B4262
:100AE00005D0491E521CC0E90012002070474FF08B
:100AF000FF30704710B5141E73F1000408DA401C73
:100B000041F1000192185B411A4301D120F001002C
:100B100010BD2DE9F04D92469B4611B1B1FA81F21C
:100B200002E0B0FA80F220329046FFF7C3FB0446A1
:100B30000F4640EA0A0041EA0B0153465A46084371
:100B400013D0114653EA010019D0C8F140025046B3
:100B5000FFF7BFFB05460E46504659464246FFF793
:100B6000A9FB084305D0012004E020463946BDE832
:100B7000F08D0020054346EAE0762C4337430A987F
:100B80006305E40AA0EB08000022FD0A44EA47548A
:100B90000A3002D500200146E9E701051019694134
:100BA000DDE9084500196941BDE8F04DA2E7000004
:100BB0007F2801D9002208E0064A02EB5002C00754
:100BC000127800D1120902F00F0201209040084073
:100BD00070470000B24500080EB540F23342029261
:100BE0000022CDE900221346FFF793FF03B000BDBA
:100BF00001F0004330B421F0004150EA010206D078
:100C00000A0DA2F56072C1F31301002A02DC30BCA8
:100C100000207047440F44EAC104C100E01830BC12
:100C200000EBC250AFF300800029A8BF7047401C02
:100C3000490008BF20F00100704710B4B0FA80FCF2
:100C400000FA0CF050EA010404BF10BC704749B12F
:100C5000CCF1200421FA04F411FA0CF118BF01219F
:100C600021430843A3EB0C01CB1D4FEA00614FEA7F
:100C7000102042BF002010BC704700EBC35010444E
:100C80000029A4BF10BC7047401C490008BF20F0D9
:100C9000010010BC704730B58C1810F8012B12F011
:100CA0000F0301D110F8013B120906D110F8012BF6
:100CB00003E010F8015B01F8015B5B1EF9D101E074
:100CC00001F8013B521EFBD1A142E6D3002030BD0A
:100CD000FEE710B540F2012001F03EFDBDE81040F6
:100CE00040F2234001F038BD70474FF4004000F05F
:100CF00039B84FF4807000F035B872B6FEE70000E6
:100D000070B5044600F016F90546601C02D0044890
:100D10000078044400F00EF9401BA042FAD370BDE5
:100D2000A401002010B5B0F5004F0AD0B0F5807FC7
:100D30000ED108A002F0BCF8BDE810401420FFF767
:100D4000DFBF01F0E9FC0649403808700120487017
:100D500010BD00005057525F4F4E0D0A00000000BA
:100D600086010020044910B50A68024202D00860DA
:100D7000FFF7D8FF10BD0000143C01402DE9F84FEB
:100D8000DFF87C91002209F1040A0AF1040B032721
:100D90004FF00F0C0BF1040E01250B6895402B4012
:100DA000AB426ED10C7904F00304012C01D0022C6B
:100DB00015D18668540007FA04F826EA0806D1F827
:100DC0000C8008FA04F848EA0608C0F8088044686D
:100DD000AC430D79C5F300159540254345600C796A
:100DE000E443A40708D0C568540007FA04F6B543E5
:100DF0008E68A6402E43C6600C7904F00304022CD2
:100E000011D1D40800EB8406356A5407E40E0CFABD
:100E100004F825EA0805D1F8108008FA04F848EA31
:100E20000508C6F820800568540007FA04F6B543A3
:100E30000E7906F00306A6402E4306604C6814F4B3
:100E4000403F57D02F4C256845F4804525602468E5
:100E500022F0030504F4804400942B4C05EB0408B5
:100E6000D8F808589407260F0CFA06F4A543274C27
:100E7000A04201D1002415E0254CA04202D101245A
:100E800010E037E0234CA04201D102240AE0224CBA
:100E9000A04201D1032405E0204CA04201D104244A
:100EA00000E00724B4402C43C8F80848D9F80040B3
:100EB0004D464E689C43F60300D51C432C60DAF87F
:100EC000004055464E689C43B60300D51C432C6039
:100ED000DBF800405D464E689C43F60200D51C439B
:100EE0002C60DEF8004075464E689C43B60200D583
:100EF0001C432C60521C102AFFF44EAFBDE8F88F43
:100F0000003C0140443802400030014000000240F3
:100F10000004024000080240000C024000100240A1
:100F20000069084000D0012070470AB18161704714
:100F30000904FBE70148806870470000A401002015
:100F400002488168491C816070470000A4010020AC
:100F50000B4810B5016841F400710160016841F46B
:100F600080610160016841F480710160032000F03C
:100F70006FF8002000F006F800F024F8002010BD03
:100F8000003C024070B50D4D04464FF47A7128784C
:100F9000B1FBF0F00A490968B1FBF0F000F000FB8A
:100FA00048B9102C07D200222146501E00F030F81C
:100FB00000206C6070BD012070BD0000A401002005
:100FC000B00100200A4808B5016841F48041016081
:100FD000006800F4804000900548001F016841F05F
:100FE00080510160006800F08050009008BD000052
:100FF00044380240002809DB00F01F020121914023
:101000004009800000F1E020C0F8001170470000A6
:10101000F0B40E4B1B68C3F30223C3F10704042C86
:1010200000D904241D1D072D01D2002300E0DB1E82
:10103000012606FA04F56D1E0D409D409E40761E69
:10104000164045EA0601F0BC01F042BF0CED00E09D
:10105000064A00F0070110684FF6FF03184040EA07
:101060000120034908431060704700000CED00E0C8
:101070000000FA052DE9F0470D46040065D0DFF8C1
:101080001491D9F80000EFB200F00700A84207D28F
:1010900089F80070D9F8000000F00700A84254D188
:1010A00020683D4E810712D5400703D5306840F4D3
:1010B000E05030602078000703D5306840F460408D
:1010C00030603068A16820F0F0000843306020787C
:1010D000C0072DD0304960680839012812D0022895
:1010E00013D0032811D00968890700292DDA316847
:1010F00021F0030101433160FFF71CFF804641F2FC
:10110000883A0EE009688903EFE709688901ECE78E
:10111000FFF710FFA0EB0801514502D90320BDE8FD
:10112000F0873068616800F00C00B0EB810FEFD100
:10113000D9F80010484601F00701A94207D9077005
:10114000006800F00700A84201D00120E7E72078FE
:10115000400705D53068E16820F4E050084330606E
:101160002078000706D53068216920F4604040EA05
:10117000C100306000F038F83168084AC1F303114B
:10118000515CC8400649086006480068FFF7FAFE4F
:101190000020C4E7003C0240083802409A4500089D
:1011A000B0010020A8010020044805490068096832
:1011B000044AC1F38221515CC8407047B00100204D
:1011C00008380240AA450008044805490068096833
:1011D000044AC1F34231515CC8407047B00100205D
:1011E00008380240AA450008154810B5006810F0FC
:1011F0000C01144813D0431004290FD008290ED134
:101200000F4C241F216801F03F022168490207D5D5
:101210002068C0F38810A0FB030106E0184610BD4B
:101220002168C1F38811A1FB00010023FEF7D0FF64
:101230002168C1F30141491C4900B0FBF1F010BD28
:10124000083802400024F4002DE9F84F040075D05E
:101250002078DFF838A3C007AAF1040548D00AF1C6
:1012600004000168C1F38101012908D00068C0F3BE
:10127000810002280AD1DAF80000400206D5286869
:10128000800335D560680028E1D031E06068B0F5B2
:10129000803F10D0B0F5A02F286810D020F4803007
:1012A0002860286820F4802028606068A0B1FFF7DB
:1012B00041FE06460CE0286840F48030F4E740F434
:1012C00080202860F7E7FFF735FE801B642871D87F
:1012D00028688003F7D50BE0FFF72CFE064604E0F4
:1012E000FFF728FE801B6428F1D828688003F7D414
:1012F0002078DFF89C9280074FF0000B3DD5A34883
:10130000001D016811F00C0F08D00068C0F38100C7
:1013100002280AD1DAF80000400206D428688007C3
:1013200015D5E068012809D111E0E068B8B10120C5
:10133000C9F80000FFF7FEFD064605E022E1FFF7D1
:10134000F9FD801B0228C2D828688007F7D52868D5
:10135000216920F0F80040EAC10028600DE0C9F8DA
:1013600000B0FFF7E7FD064604E0FFF7E3FD801B52
:1013700002281FD828688007F7D42078000722D5D4
:10138000824F84486169703771B101210160FFF7B4
:10139000D1FD064604E0FFF7CDFD801B022809D8E9
:1013A00038688007F7D50EE0C0F800B0FFF7C2FD3F
:1013B000064605E082E0FFF7BDFD801B02287DD8D0
:1013C00038688007F7D42078400765D56F484FF01C
:1013D00000083C300068C0000BD46C483C30016809
:1013E00041F08051016000684FF0010800F080502A
:1013F0000090694F3868C0050FD4386840F4807099
:101400003860FFF797FD064604E0FFF793FD801B69
:10141000022853D83868C005F7D55C4FA0686C37F0
:1014200001280FD00528386810D020F0010038605E
:10143000386820F004003860A068B0B1FFF77AFD8A
:1014400006460EE0386840F00100F4E740F0040082
:101450003860F7E7FFF76EFD811B41F2883081426B
:1014600063D838688007F5D50DE0FFF763FD0646C1
:1014700006E0FFF75FFD811B41F28830814254D8BE
:1014800038688007F5D4B8F1000F05D03F483C30EC
:10149000016821F080510160A069B8B33B49091D82
:1014A0000968C1F38101022946D00228584606D0B6
:1014B000C9F86000FFF73EFD044639E035E04F46CD
:1014C000C9F86000FFF736FD064604E0FFF732FD7D
:1014D000801B022829D828688001F7D4D4E90701A5
:1014E0000843A16A2D4A490802EB0141626A41EAB8
:1014F0008211084394F82C1040EA0161CAF80010E8
:1015000001203866FFF716FD044605E03CE0FFF7D2
:1015100011FD001B022808D828688001F7D533E0A8
:10152000FFF708FD001B022802D90320BDE8F88F51
:1015300028688001F4D427E00128F7D0DAF8000009
:10154000E26900F4800191421CD1226A00F03F015F
:10155000914217D147F6C071626A0140B1EB821F18
:1015600010D1A26A4FF0FF3300F4403103EB520276
:10157000B1EB024F06D194F82C1000F07060B0EB84
:10158000016F01D00120D1E70020CFE704380240ED
:1015900000004742800E4742007000400000FFFFFD
:1015A00010B5401EB0F1807F01D3012010BD4FF077
:1015B000E02460610F21601701F08AFC0020A06127
:1015C00007202061002010BD7047704770B590F86B
:1015D0003C20012A2CD0012580F83C50022280F8C2
:1015E0003D2002685368946823F070060B6833430B
:1015F0005360104B02689A420ED0B2F1804F0BD06C
:101600000D4B9A4208D00D4B9A4205D00C4B9A4292
:1016100002D00C4B9A4204D1496824F0800319434C
:10162000916080F83D50002180F83C10084670BD64
:10163000022070BD0000014000040040000800408E
:10164000000C00400040014010B5040003D094F8A5
:101650003D0010B107E0012010BD002084F83C00DF
:10166000204600F01FF8022084F83D00211D20686C
:1016700001F05AFA012084F8460084F83E0084F80C
:101680003F0084F8400084F8410084F8420084F868
:10169000430084F8440084F8450084F83D000020AD
:1016A00010BD000008B50068104A1149904211D1E0
:1016B000086840F4003008600868002200F4003038
:1016C000009003211920FFF7A3FCBDE80840192072
:1016D000FFF790BC074A904207D1086840F4802089
:1016E0000860086800F48020009008BD00440140B4
:1016F000443802400048014090F83D10012901D0D3
:1017000001207047022180F83D1000680E49884290
:101710000ED0B0F1804F0BD00C49884208D00C4954
:10172000884205D00B49884202D00B49884204D137
:10173000816801F00701062903D0016841F0010129
:1017400001600020704700000000014000040040DC
:1017500000080040000C00400040014090F83D109F
:10176000012901D001207047022180F83D10016855
:10177000CA6842F00102CA6000680E4988420ED071
:10178000B0F1804F0BD00C49884208D00B498842F9
:1017900005D00B49884202D00A49884204D18168A9
:1017A00001F00701062903D0016841F00101016041
:1017B0000020704700000140000400400008004085
:1017C000000C00400040014001680A6A41F2111318
:1017D0001A4207D10A6A9B101A4203D10A6822F002
:1017E00001020A60012180F83D1000207047704717
:1017F00070B50446006801694FF00005C9438907C8
:1018000015D4C168C943890711D4E91E01610120BB
:101810002077206880698007204602D0FFF7E7FF25
:1018200004E000F0C1F8204600F064F92577206854
:101830000169C943490717D4C168C943490713D48B
:101840006FF004010161022020772068806910F4A4
:10185000407F204602D0FFF7CAFF04E000F0A4F862
:10186000204600F047F9257720680169C943090738
:1018700016D4C168C943090712D46FF00801016189
:10188000042020772068C0698007204602D0FFF737
:10189000AEFF04E000F088F8204600F02BF9257731
:1018A00020680169C943C90617D4C168C943C9067C
:1018B00013D46FF010010161082020772068C069FF
:1018C00010F4407F204602D0FFF791FF04E000F0C3
:1018D0006BF8204600F00EF9257720680169C943AE
:1018E000C90708D1C168C943C90704D1891E01616C
:1018F000204600F05DF920680169C943090609D452
:10190000C168C943090605D46FF080010161204612
:10191000FFF75AFE20680169C943490609D4C16826
:10192000C943490605D46FF040010161204600F02B
:1019300071F920680169C94389060BD4C168C9439C
:10194000890607D46FF0200101612046BDE8704090
:10195000FFF73BBE70BD000010B586B004461421F1
:101960006846FEF77FFC2068B0F1804F15D10C4827
:101970000021026842F001020260006800F00100EC
:101980000590072000900220CDE901010120CDE95A
:10199000031069460348FFF7F1F906B010BD0000D7
:1019A0003038024000000240704770B5044690F89D
:1019B0003C0000260D4601280FD0012084F83C0091
:1019C0006AB1042A1DD0082A2FD00C2A3FD0012644
:1019D000002084F83C00304670BD022070BD2068B5
:1019E00001F0FCF82068816941F0080181612068FC
:1019F000816921F004018161206881692A691143AC
:101A000011E0206801F016F92068816941F4006155
:101A100081612068816921F4806181612068816928
:101A20002A6941EA02218161D2E7206801F030F998
:101A30002068C16941F00801C1612068C16921F0D5
:101A40000401C1612068C1692A69114311E020685D
:101A500001F04AF92068C16941F40061C161206860
:101A6000C16921F48061C1612068C1692A6941EAC4
:101A70000221C161ACE710B5040003D094F83D0029
:101A800010B107E0012010BD002084F83C00204682
:101A900000F01EF8022084F83D00211D206801F0AE
:101AA00043F8012084F8460084F83E0084F83F00A3
:101AB00084F8400084F8410084F8420084F8430030
:101AC00084F8440084F8450084F83D00002010BDEF
:101AD00008B50068B0F1804F08D10548016841F0B1
:101AE00001010160006800F00100009008BD0000E5
:101AF000403802407047000010B5044649B104293F
:101B00000AD008290BD094F8410001280AD00120FE
:101B100010BD94F83E00F8E794F83F00F5E794F81C
:101B20004000F2E7022071B3042930D0082931D0F7
:101B300084F841000122206801F042F8174920682A
:101B4000884203D1426C42F40042426420688842D9
:101B50000ED0B0F1804F0BD01149884208D0114906
:101B6000884205D01049884202D01049884204D1E9
:101B7000816801F00701062903D0016841F00101E5
:101B80000160002010BDFFE784F83E00D2E784F832
:101B90003F00CFE784F84000CCE7000000000140A0
:101BA0000004004000080040000C004000400140DC
:101BB00070B51449884223D1134C00252078401C6D
:101BC000C0B22070042802D100F0C6FB25700F4877
:101BD0000078A0B160780E49401CC0B260706428E3
:101BE0000AD0C8280CD165700978002000F01AFBD3
:101BF000BDE8704000F074BB09780120F6E765701D
:101C000070BD00000C02002088010020A00100200F
:101C100094010020704770B5040004D094F83D0092
:101C2000002510B106E0012070BD84F83C5020462C
:101C300000F022F8242084F83D002068C16821F4D7
:101C40000051C160204601F071F82068016921F45B
:101C5000904101612068416921F02A0141612068B9
:101C6000C16841F40051C1602564202084F83D0022
:101C700084F83E00002070BD10B586B004461421E3
:101C80006846FEF7EFFA14492068884221D11348CC
:101C90000021026842F010020260006800F01000AB
:101CA00005900E481438026842F001020260006894
:101CB00000F0010005904FF4C06000900220CDE9D3
:101CC0000101032003900720049069460448FFF7B0
:101CD00055F806B010BD0000001001404438024025
:101CE000000002402DE9F843044690F83D001F46ED
:101CF00015460E4620284BD1C6B1BDB194F83C0024
:101D0000012845D0012084F83C004FF00008C4F8B9
:101D10004080212084F83D00FFF70CF9A58481461E
:101D2000E584A068B0F5805F03D004E00120BDE841
:101D3000F883206920B13546002684F83C800EE007
:101D40000025FAE78021204601F076F8A0B9ADB170
:101D500015F8010B21684860E08C401EE084E08C9F
:101D60004B464FF0000200970028EBD14FF04001A6
:101D7000204601F061F830B10320D8E736F8020BB5
:101D8000C0F30800E6E7202084F83D000020CEE7FD
:101D90000220CCE7FEE700002DE9F04385B0804645
:101DA000002414216846FEF75DFA00204FF4007607
:101DB000CDE90060294F69463846FEF7DFFFB1469E
:101DC00000253E46BF15002239463046FFF7ADF8E4
:101DD000012001F02BFD012239463046FFF7A5F81E
:101DE000012001F023FD6006040E49463046FFF74E
:101DF00097F808B1641CE4B2012001F017FD6D1CD6
:101E0000EDB2082DDFD3B8F1000F4FF000023946D4
:101E100030461CD0FFF789F800F00EFE002249463C
:101E20003046FFF782F8012001F000FD012239461B
:101E30003046FFF77AF8012001F0F8FC002239461D
:101E40003046FFF772F805B02046BDE8F083FFF793
:101E50006CF800F0F1FD0122E1E70000000402400F
:101E60002DE9F041054600F0E7FD174F4FF480766D
:101E7000002231463846FFF758F800244FF4007826
:101E8000280601D5012200E0002241463846FFF72E
:101E90004CF86806050E012001F0C8FC012231460D
:101EA0003846FFF742F8012001F0C0FC002231461D
:101EB0003846FFF73AF8012001F0B8FC641CE4B2A0
:101EC000082CDDD3BDE8F0810004024070B500F0BD
:101ED000B3FD0122104D140221462846FFF725F8D4
:101EE0000122560231462846FFF71FF8012001F073
:101EF0009DFC002231462846FFF717F8012001F02B
:101F000095FC002221462846FFF70FF8BDE87040F7
:101F1000012001F08BBC0000000402402DE9FE4FBF
:101F20000026A2EB000882465F1A701E35468946DD
:101F3000B8F1000F02DD4FF0010102E003D14FF0D4
:101F40000001019102E0C8F100080190002F02DDBC
:101F50004FF0010002E003D14FF00000009002E0DA
:101F6000C7F1000700904046B84501DD044600E097
:101F70003C46601C4FF0000B029017E00C9809F0F3
:101F8000FF01C2B20AF0FF0000F016F846443D44DB
:101F9000A64202DD0199361B8A44A54202DD009962
:101FA0002D1B89440BF101001FFA80FB02998B4520
:101FB000E4DDBDE8FE8F000010B5602811D22029B5
:101FC0000FD2CB0803EB430300EB4310054C8023F7
:101FD00001F00701CB40215C0AB1194300E09943AD
:101FE000215410BD0000002070B5314D4FF4005455
:101FF000002221462846FEF798FF0220FEF780FEC9
:10200000012221462846FEF790FF00226110284653
:10201000FEF78BFFE22000F04DF81420FEF770FE73
:10202000AE2000F047F8F82000F044F8002000F05F
:1020300041F8A22000F03EF8A02000F03BF8C020BC
:1020400000F038F8A62000F035F8A42000F032F8AF
:10205000E02000F02FF8AC2000F02CF8002000F079
:1020600029F8212000F026F8812000F023F81E2016
:1020700000F020F82F2000F01DF8402000F01AF8A2
:10208000AF2000F017F8B02000F014F8122000F094
:1020900011F8042000F00EF8E02000F00BF8E0202A
:1020A00000F008F8BDE870400520FEF729BE0000EA
:1020B0000004024070B5144C064600224FF48041E3
:1020C0002046FEF732FF012240211048FEF72DFF87
:1020D0004FF40045002229462046FEF726FF052042
:1020E00001F0A4FB084A1432106800F47F40304429
:1020F0001060012229462046FEF717FFBDE8704018
:10210000052001F093BB00000004024000080240DB
:1021100070B5134C0646012291032046FEF705FFD9
:10212000012240210F48FEF700FF4FF40045002236
:1021300029462046FEF7F9FE052001F077FB084A04
:102140001432106800F47F403044106001222946A8
:102150002046FEF7EAFEBDE87040052001F066BBB0
:1021600000040240000802402DE9F04F203A8B465F
:10217000814602EB42004FF6FF71DFF850A098460F
:1021800001EA8006002500240BEB05071AF806007B
:10219000E040C00702D008F0FF0203E0B8F1000FF2
:1021A00012D0002209EB0400F9B2C0B2FFF704FF1D
:1021B000641CA4B2062CE9D3761C6D1CADB2B6B279
:1021C0000C2DE0D3BDE8F08F0122EBE7363B000891
:1021D0002DE9F04F81461001A0F50070DFF8408036
:1021E0009A468B4686B2002500240BEB050718F8AB
:1021F0000600E040C00707D009EB04000AF0FF0228
:10220000F9B2C0B2FFF7D8FE641CA4B2082CEED31A
:10221000761C6D1CADB2B6B2102DE5D3BDE8F08FC3
:10222000AA3F0008F8B50C00054606D100220A2393
:10223000012110460095FFF771FE124F4FF0FF3657
:10224000F878A0420CD000210091B0B100EB400022
:1022500006EB400082B280B20A230121FFF75EFE46
:1022600004EB440006EB4000FC7082B280B20A230B
:1022700001210095FFF752FEF8BD00220A2301213B
:102280001046EBE7940100202DE9F0431D46164669
:10229000894607460024DDF81C801CE0802A17D2FE
:1022A000102E02D00C2E16D108E0381980B2434609
:1022B00049466D1CFFF78CFF083407E0381980B2DF
:1022C000434649466D1CFFF74FFFA41DA4B202E030
:1022D0001034A4B2AD1C2A78002ADFD1BDE8F08307
:1022E0002DE9F041134F0025EE20FFF7E3FEC5F185
:1022F0000300C0B240F0B000FFF7DCFE1220FFF791
:10230000D9FE0420FFF7D6FEE020FFF7D3FE00241D
:1023100005EB450604EB4610385CFFF7F9FE641C3C
:10232000E4B2602CF6D36D1CEDB2042DDCD3BDE815
:10233000F0810000000000200249C0F1630009683C
:10234000C8637047C40100200249C0F163000968F6
:1023500048637047C401002030B51F49CA1E0B787E
:1023600010780BB1401C00E0401E10701A484B78EA
:10237000C01E40780BB1401C00E0401E5070164853
:102380008B78C01E80780BB1401C00E0401E90701E
:10239000107800240125632801D010B102E00C70F0
:1023A00000E00D705378632B01D013B102E04C7044
:1023B00000E04D709378632B01D013B102E08C7074
:1023C00000E08D70FFF7C0FF507800F007F89078BC
:1023D000BDE83040FFF7B0BF830100200249C0F1E3
:1023E0006300096888637047C40100202DE9F0414B
:1023F00005004BD0264C6068FDF73FFFC6B2606811
:10240000FDF73BFF401B401CC7B2384601F0E2FA23
:1024100080463946FDF726FF60687A1E411940461E
:10242000FDF707FF284601F0D5FA07462946FDF7D4
:1024300019FF6A1E38466168FDF7FBFE606801F00F
:102440002DFA304601F0C6FA31466060FDF70AFF0A
:102450003846FDF712FF024639466068FDF7E9FE8F
:102460004046FDF70AFF05463846FDF706FF61685E
:102470002A4608444146FDF7DCFE404601F00EFACC
:10248000384601F00BFA0020BDE8F0810120FBE79F
:102490009401002038B50124002108A30C2208462D
:1024A0000094FFF7F1FE0021094B0C22084600942E
:1024B000FFF7EAFEBDE83840FFF712BF20202020DA
:1024C000202020202020202020202020000000008C
:1024D000E002002010B50A78002A72D00022524C87
:1024E0000A70182877D024DC0B286CD014DC022862
:1024F0007BD008DC002868D0012862D14A49627884
:10250000091D4AA035E009286AD00A2859D1464950
:102510006278091D46A02CE0112834D0122841D041
:10252000132853D014287ED13F496278091D41A059
:102530001FE0212819D009DCA0F11900082872D267
:10254000DFE800F01C2B3A587171710E22281FD061
:1025500023282CD02A2860D02C2864D101210BE01C
:1025600031496278091D34A003E02F496278091DC2
:1025700032A001F07FFA0021012047E02A49627869
:10258000091D2FA0F5E728496278091D2DA0F0E765
:1025900025496278091D2CA0EBE723496278091DC3
:1025A0002AA0E6E720496278091D29A0E1E71E4933
:1025B0006278091D27A0DCE71B496278091D26A067
:1025C000D7E730E007E01AE00FE028E0164962782C
:1025D000091D22A0CDE714496278091D20A0C8E793
:1025E00011496278091D1FA0C3E70F496278091DD0
:1025F0001DA0BEE70C496278091D1CA0B9E76078F0
:10260000FFF7F4FE00280ED10021002000F030F882
:10261000A078BDE8104001F013BA0121F5E7BDE84C
:10262000104001F063B910BD940100202D0000009E
:102630002A000000290000003000000031000000E6
:1026400032000000330000003400000035000000BC
:10265000360000003700000038000000390000009C
:102660002E0000002B0000002F00000028000000BA
:102670002DE9F041264D06460F466868FDF7FDFD41
:10268000C4B266B32348FDF7F8FD102814D1102C0E
:1026900012D92878102803D200F10100287013E025
:1026A0002FD16878A04201D2401C6870A878103CF5
:1026B000A04226DA401C23E0164847B1FDF7DDFDB5
:1026C0002978884208D81CE06878401C0DE0FDF7A6
:1026D000D4FD2978884214D3491C2970F4E728785E
:1026E00028B1401E28706878401E687009E068783C
:1026F00008B1401E6870102C03D9A87808B1401E9C
:10270000A8702978BDE8F0410120FFF78BBD0000DB
:1027100094010020E002002070B5FFF7D7FB6F2086
:10272000FFF79EFB01220B4D140221462846FEF7BF
:10273000FCFB012001F07AF8002221462846FEF732
:10274000F4FB012001F072F8BDE870400020FFF7B3
:1027500023BB0000000402402DE9F0410446FFF7CE
:10276000B5FBE009C0F34400602141EA4000FFF7F7
:1027700077FB01221F4E550229463046FEF7D5FB56
:10278000012001F053F80122170239463046FEF7C6
:10279000CCFB012001F04AF8002239463046FEF712
:1027A000C4FB002229463046FEF7BFFBE0B2FFF72C
:1027B00057FB00F041F9002239463046FEF7B5FBE1
:1027C000002229463046FEF7B0FB012001F02EF82A
:1027D000012239463046FEF7A8FB01222946304641
:1027E000FEF7A3FB012001F021F8BDE8F0416420D1
:1027F00001F01CB8000402402DE9F04186B014211C
:102800006846FDF72FFD3A480024016841F0800139
:102810000160016801F080010591016841F001014A
:102820000160016801F001010591016841F00401B6
:102830000160016801F004010591016841F00201A5
:10284000016000682B4F00F002004FF2FF35059049
:10285000002229463846FEF768FBDFF89C800022FC
:1028600040214046FEF761FB1020CDE90004022024
:10287000029069464046FEF781FA0095032601253D
:102880000396CDE9015469463846FEF777FA4020B1
:10289000CDE90005CDE9024669464046FEF76EFAED
:1028A00028024FF404160090CDE90165134D6946E6
:1028B0002846FEF763FA4FF40040CDE9000669466A
:1028C00002942846FEF75AFA002201211720FEF74B
:1028D0009FFB1720FEF78EFB002202212820FEF727
:1028E00097FB2820FEF786FB06B0BDE8F0810000CC
:1028F000303802400004024000080240000002405C
:102900000B4810B50949016042F2CF014160002136
:102910003122C0E9021201618161FEF795FE0028B3
:1029200003D0BDE81040FEF7E8B910BD00440140F7
:102930000C0200200B4810B5094901605321416089
:1029400000214FF6FF72C0E9021201618161FEF7BA
:102950007BFE002803D0BDE81040FEF7CEB910BDC5
:10296000004801405402002030B589B0002407948B
:102970001C2168460894FDF775FC1E484FF0804105
:10298000632502C040F2473132C0802140F810492F
:1029900081611848FFF76FF808B1FEF7AEF90794A8
:1029A00007A914480894FEF711FE08B1FEF7A5F92F
:1029B00060200090CDE90154002269460D4804943E
:1029C000FEF7F3FF08B1FEF798F9042269460948BB
:1029D000FEF7EBFF08B1FEF790F9082269460548BB
:1029E000FEF7E3FF08B1FEF788F90248FEF7B4FFEF
:1029F00009B030BDC40100200C4810B50A4901607F
:102A00004FF4E1314160002181600C22C160C0E9D6
:102A100004128161C161FFF7FEF8002803D0BDE810
:102A20001040FEF76AB910BD001001409C02002062
:102A3000FEE7FEE77047000000B585B01421684648
:102A4000FDF710FC0120019002900220039000028B
:102A5000009069460248FEF791F905B000BD0000FC
:102A600000040240704710B5082000F0B3FF0021B9
:102A7000416010BDFEF764BA30B593B030216846AE
:102A8000FDF7F0FB14210CA8FDF7ECFB1D48002519
:102A9000016841F080510160006800F080501190A1
:102AA0001948016821F4404141F400410160006887
:102AB000022400F440401190012000900004019095
:102AC0008001CDE9064008AA0420542182E81300C1
:102AD0000B906846FEF7B8FB08B172B6FEE70CA98A
:102AE0000F2081E831004FF48050CDE90F0502211D
:102AF0000CA8FEF7BFFA002801D072B6FEE713B0AB
:102B000030BD0000403802400070004002480168BB
:102B100041F470010160704788ED00E00148FEF764
:102B200067BE00000C020020F0B502681D4C1E4D6F
:102B30001E4E1F4F4FF0804CA04207D0604505D07D
:102B4000A84203D0B04201D0B84203D122F07003B2
:102B50004A681A43A04210D060450ED0A8420CD05B
:102B6000B0420AD0B84208D0124B984205D0124B5E
:102B7000984202D0114B984203D122F44073CA68A4
:102B80001A434B6922F080021A4302608A68C262CB
:102B90000A688262A04201D1096901630121416191
:102BA000F0BD0000000001400004004000080040AB
:102BB000000C00400040014000440140004801403A
:102BC00010B501F01F010123046A8B409C4304628D
:102BD000036A8A401343036210BD000030B5026AE5
:102BE00022F001020262036A4268846924F07305DC
:102BF0000C682C4323F002058B682B430C4DA84234
:102C000006D123F00805CB6843EA050323F004034B
:102C100007D14D6922F4407245EA02058A6942EA09
:102C200005024260846149684163036230BD00006F
:102C30000000014030B5026A22F010020262026A0E
:102C4000436884690D6824F4E64444EA05248D68E9
:102C500022F0200242EA05120C4DA84206D1CD68AE
:102C600022F0800242EA051222F0400207D14D69AB
:102C700023F4406343EA85038D6943EA8503436097
:102C8000846149688163026230BD00000000014038
:102C900030B5026A22F480720262036A4268C46933
:102CA00023F4007324F073050C682C438D6843EA09
:102CB00005230C4DA84206D1CD6823F4006343EAF6
:102CC000052323F4806307D14D6922F4405242EA80
:102CD00005128D6942EA05124260C4614968C16308
:102CE000036230BD0000014030B5026A22F4805218
:102CF0000262036A4268C4690D6824F4E64444EA47
:102D000005248D6823F4005343EA0533064DA84299
:102D100004D14D6922F4804242EA85124260C461C6
:102D200049680164036230BD0000014070B504468B
:102D300000680169E26821F4405111430161A16812
:102D40002069E26901436069104301432068C26859
:102D500049F20C639A430A43C26020684169A26940
:102D600021F440711143416131492068884202D009
:102D70003049884202D1FEF727FA01E0FEF714FA43
:102D8000E2690023192164253226B2F5004F6268FA
:102D900028D0A0FB0101930F9200FDF719FA01461C
:102DA000B0FBF5F06FF01802504301EB800006EB2A
:102DB0000010B0FBF5F000F0F002B1FBF5F002EB13
:102DC0000012B1FBF5F06FF01803584301EB8000DF
:102DD00006EB0010B0FBF5F000F00F002168104486
:102DE000886070BDA0FB010192185B41FDF7F0F90E
:102DF0000146B0FBF5F00201B1FBF5F06FF01803EE
:102E0000584301EB800006EBC000B0FBF5F000F08A
:102E1000F80002EB4002B1FBF5F0584301EB8000F3
:102E200006EBC000B0FBF5F000F00700D6E70000AD
:102E300000100140001401402DE9F0411E461746E4
:102E400088460446069D26E0681C24D025B1FEF77E
:102E500071F8801BA8421ED920680C3050E8001F72
:102E600021F4D07140E80012002AF5D12068143016
:102E700050E8001F21F0010140E80012002AF5D1BE
:102E8000202084F83D0084F83E00002084F83C00B7
:102E90000320BDE8F0812068016838EA010004D011
:102EA0000020B842D0D00020F3E70120F9E7FEE788
:102EB0000FB4054B10B503A9044A029800F01AF9A3
:102EC00010BC5DF814FB000085380008B401002038
:102ED0000907090E002804DB00F1E02080F8001447
:102EE000704700F00F0000F1E02080F8141D7047DB
:102EF00030B583B0044600F017F89FED090B054686
:102F00008DED000B002221466846FDF70EFA28469B
:102F100000F020F89DED000B03B030BD0000000074
:102F20000000000000000000014800687047000039
:102F3000C001002002E008C8121F08C1002AFAD10F
:102F400070477047002001E001C1121F002AFBD129
:102F5000704700000149086070470000C001002070
:102F60002DE9FF5F82B00021DDE90430020DDDF8BC
:102F700040B0034318D044F61050A2F2FF3242434F
:102F80001514119801281FD0A5EB0B00401C5FEA17
:102F9000000A4FF000064E4FDFF83891B046504619
:102FA00015D5CAF1000413E0119801244AA30128A1
:102FB00001D16FEA0B010298119AC0E90031C0E912
:102FC000024206B0BDE8F09FCBF10000DFE7044607
:102FD0000021404A491842EB0450CDE9001012E0AC
:102FE000E00707D032463B4640464946FDF777FAB0
:102FF0008046894632463B4610461946FDF76FFA31
:1030000006460F466410002CEAD1DDE90401DDE933
:103010000023BAF1000F06DAFDF761FA42464B468B
:10302000FDF75DFA05E0FDF7CCFA42464B46FDF7A9
:10303000C8FA04460E460022284BFDF749FB03D888
:103040004FF0FF30014607E00022254B2046314675
:10305000FDF79EF9FDF724FB102409E0002C0ADBA4
:103060000A220023FDF7B4F8039B30321A55641E80
:1030700050EA0102F2D1641C039AC4F11103144412
:10308000119A012A03D0012208430DD10AE0084316
:1030900004D000204FF0110B119072E7A3EB0B0549
:1030A0006D1E0DE05B4504DD4FF0000205F10105EA
:1030B00004E003DA4FF00002A5F10105002AECD08C
:1030C00002981199C0E90231C0E9004579E7000092
:1030D000000014400000F03F300000000000F0430A
:1030E0000000E03F30380A2801D20120704700205C
:1030F000704700002DE9FF4F95B09A468846064676
:103100000025EEE1252877D100242746F94A012140
:10311000039400E0044316F8013F203B01FA03F05A
:103120001042F7D130782A2811D06FF02F03307871
:10313000A0F13002092A16D8039A44F0020402EBE7
:10314000820203EB42021044761C0390EFE758F82A
:10315000042B0392002A03DA504244F400540390F3
:1031600044F00204761C30782E2816D116F8010F90
:1031700044F004042A280DD06FF02F023078A0F11B
:103180003003092B09D807EB870302EB4303C71869
:10319000761CF3E758F8047B761C30786C280FD047
:1031A00006DC4C2817D068280DD06A2814D104E01A
:1031B000742810D07A280FD10DE044F400140AE0EE
:1031C00044F4801401E044F440147278824202D145
:1031D00004F58014761C761C307866280BD013DC3E
:1031E000582877D009DC002875D04528F6D0462825
:1031F000F4D047281AD193E118E0632835D0642829
:1032000079D0652812D18BE1702873D008DC67284B
:10321000F1D069286FD06E280DD06F2806D1ACE0B0
:1032200073282CD0752874D0782853D0524617991B
:1032300090476D1C54E1C4F30250022809D00328C2
:103240000DD0D8F8001004280DD00D6008F1040846
:1032500046E1D8F80010EA17C1E90052F6E7D8F8BD
:1032600000100D80F2E70D70F0E718F8041B8DF8E0
:10327000001000208DF80100EB46012003E058F813
:1032800004BB4FF0FF3061074FF0000102D40DE0A6
:1032900009F101018946B9420FDA8145F8DB1BF8D3
:1032A00009100029F4D108E009F1010189468142A1
:1032B000FADB1BF809100029F6D103985346A0EB5E
:1032C000090721463846179A00F080FA284400EB97
:1032D000090507E044E008E10DE01BF8010B524648
:1032E00017999047B9F10109F7D25346214638465C
:1032F000179AF2E039E00A21C4F302524FF0000BB2
:103300000091022A06D058F8040BC117032A09D0ED
:103310000AE023E008F1070020F00702F2E80201CA
:10332000904605E000B2C117042A01D140B2C1178E
:10333000002906DA0A460021404261EB02012D22F3
:1033400002E0220504D52B228DF80420012203E09F
:10335000E20701D02022F7E7914657E00A2100E07A
:1033600010214FF0000B00910BE010214FF0000BEB
:1033700044F004040827009103E008204FF0000BFC
:103380000090C4F30252022A05D058F8040B002121
:10339000032A08D008E008F1070020F00702F2E84D
:1033A0000201904603E080B2042A00D1C0B24FF07F
:1033B000000922072AD53278702A07D0DDF800C02C
:1033C0008CF0100C5CEA0B0C05D00EE040228DF85E
:1033D0000420012208E050EA010306D030238DF8D2
:1033E00004308DF8052002229146009B83F00803EB
:1033F00053EA0B030AD150EA010201D1620705D555
:1034000030228DF804204FF001097F1E3278582AAF
:1034100004D039A20C920CAA02920BE03BA2F9E76D
:103420005B46009AFCF7D4FE0C9B9B5C029A521EF2
:103430000292137050EA0102F2D1029804A9081A0C
:1034400000F1200B600702D524F4803400E001274E
:103450005F4502DDA7EB0B0000E0002000EB0B0155
:10346000009003984944401A0390E00306D4534661
:103470002146179A039800F0A9F90544002706E0B1
:1034800001A85246C05D179990476D1C7F1C4F459F
:10349000F6DBE0030CD553462146179A039800F05B
:1034A00095F9054404E030205246179990476D1C69
:1034B0000099481E00900029F5DC08E00298029966
:1034C00052460078491C0291179990476D1CBBF138
:1034D0000001ABF1010BF1DC5BE100F065F90544A3
:1034E000761C307800287FF40DAE19B02846BDE870
:1034F000F08F00000928010030313233343536377F
:10350000383961626364656600000000303132332F
:1035100034353637383941424344454600000000CF
:10352000600700D4062708F1070020F00700F0E844
:103530000223804603F0004C5FEA0C0001D097A004
:1035400009E0200501D596A005E0E00701D095A08F
:1035500001E0AFF24C001390307823F0004365286F
:103560000CD006DC452809D046281DD047287FD13D
:103570003BE0662818D067287AD136E00021112F69
:1035800001DB112000E0781CCDE9000104A90CA8A2
:10359000FFF7E6FCDDE90D010C9A4FF0000B07F197
:1035A0000109109200914EE04FF000400097CDE9E4
:1035B000011004A90CA8FFF7D3FCDDE90D020C9B58
:1035C0000F994FF0000B91461093009211B9791C9E
:1035D00000EB0109B7EB090003D4C0F1FF3B07F191
:1035E0000109A9EB0700019042E0012F00DA012751
:1035F0000021112F01DD112000E03846CDE9000146
:1036000004A90CA8FFF7ACFCDDE90D010C9A0091B0
:103610004FF0000BB946109221070FD4009A4A458B
:1036200003DA914601E0A9F10109B9F1010F05DDC5
:10363000109AA9F10101515C3029F4D0B84202DAA4
:1036400010F1040F03DA0121CDE9011010E0002888
:1036500003DC8344A9EB000102E0411C494500DD85
:103660008946A0EB0B00401C01904FF000400290F7
:10367000200705D40198484502DB4FF0FF30019048
:1036800000208DF84B0002980DF14B07B0F1004F70
:1036900025D002200C902B200D90029800280CDAE7
:1036A000404202902D200D9007E00A210298FCF77D
:1036B000EBFD3031029007F8011D0C99481E0C906B
:1036C0000029F2DC02980028EFD1791E0D980870CD
:1036D000307800F0200040F0450007F8020D11A8F6
:1036E000C01BC01D02901398007800B1012000EBB0
:1036F0000901019801EBE071029801440398401A16
:10370000401E0390E00306D453462146179A0398BF
:1037100000F05CF805441398007818B152461799E8
:1037200090476D1CE00323D553462146179A039812
:1037300000F04CF805441BE0BBF1000F07DB0098DC
:10374000584504DD1098179910F80B0001E01799FF
:1037500030205246904701980BF1010B401E05F1B5
:103760000105019004D12E205246179990476D1CF7
:10377000B9F10001A9F10109DEDC05E017F8010B40
:103780005246179990476D1C0299481E02900029D5
:10379000F4DC53462146179A03989EE62D0000005C
:1037A0002B000000200000002DE9F0410446002518
:1037B0001E461746880404D405E039462020B04749
:1037C0006D1C641EF9D52846BDE8F0812DE9F04155
:1037D000044600251E469046C80301D5302700E068
:1037E0002027880404D505E041463846B0476D1CC3
:1037F000641EF9D52846BDE8F081000010B5044CE0
:103800002068FFF730F96068BDE81040FFF72BB97A
:103810008C010020A0F13001092901D80120704756
:103820002E2801D0002070470220704770B54FF657
:10383000FA75281A84B20B48FDF75EFF094A106832
:1038400044620020691D126805E0401C536A80B282
:103850009CB2884201D0AC42F7D3BDE87040014829
:10386000FDF7B2BF5402002010B5002000F0B2F8FE
:10387000034C6060002000F0ADF8A06010BD0000B7
:103880009401002013B54FF6FF73012269460248E8
:10389000FEF728FA00981CBD9C02002010B50028F5
:1038A00021D0114B0022001F196803E0814203D888
:1038B0000A4649680029F9D152B11368841A9C421A
:1038C00004D1006818441060104602E0506000E027
:1038D000186039B102680B1A934203D10B681A447D
:1038E00002604968416010BDB80100207CB5184EE7
:1038F0003068FCF7C2FCC5B216A000240090204638
:1039000000F068F80021009001601DE03068005D63
:103910008DF80400FFF77EFF40B10098FCF7ADFC86
:10392000C2B2694601A800F0A5F80BE00AA0009910
:10393000FFF7BEFA0098FFF7DBFA53EC102B07A055
:10394000FFF7B6FA641CE4B2AC42DFD37CBD0000E2
:10395000980100200000000025730A00252E326621
:103960000A000000FDF7F4FAFFF786F8FEF744FFBF
:10397000FFF742F8FEF7F8FFFEF7DCFFFEF7C0FFA7
:103980001048FDF7EBFE00210F48FEF7B5F80421C3
:103990000D48FEF7B1F808210B48FEF7ADF8FDF72A
:1039A00098F9FEF721FBFFF729FFFFF75DFF074DB1
:1039B000074C28780028FCD004492078FEF78AFDBF
:1039C000F7E700000C020020C4010020870100205E
:1039D00086010020F0B50B30154D20F007010024C2
:1039E000144A0FE003688B420BD38B4205D95E1A51
:1039F00043184768C3E9006700E04368136002C0EA
:103A000004E0021D10680028ECD12046002802D1F5
:103A1000286808B10020F0BD064A07481060074A30
:103A2000121A22F00702C0E9002401202860D7E71B
:103A3000BC010020B8010020FC020020F818002082
:103A400070B50A4D04466868FCF717FC102801D8C9
:103A5000002401E0702C07D868681022011904487E
:103A6000FCF7E7FBFEF716FD70BD00009401002097
:103A7000E00200202DE9F047824615460C46086812
:103A8000FCF7FBFB06465046FCF7F7FB3044401CB6
:103A9000C7B2802F4DD82068FCF7EFFB401B401CBD
:103AA000C6B23046FFF796FF81463146FCF7DAFB97
:103AB0002068721E41194846FCF7BBFB6D1CEDB235
:103AC0002846FFF787FF80462946FCF7CBFB6A1E96
:103AD00040462168FCF7ADFB2068FFF7DFFE384663
:103AE000FFF778FF39462060FCF7BCFB6A1E4146B1
:103AF0002068FCF79EFB5046FCF7BFFB024621689E
:103B0000681E08445146FCF794FB5046FCF7B5FB91
:103B10002168401E29440844721E4946FCF789FB6F
:103B20004846FFF7BBFE4046FFF7B8FE0020BDE861
:103B3000F0870120FBE7000000000000000000000B
:103B40000000000004040404040000040000141435
:103B50000A00000000000000000000000A0A1F0A1E
:103B60000A1F0A0A000000040E1505060C14150EA3
:103B70000400000012150D152E2C2A120000000062
:103B8000040A0A3615152916000002020100000079
:103B900000000000000010080804040404040808E1
:103BA00010000204040808080808040402000000C9
:103BB0000004150E0E150400000000000008083E69
:103BC00008080000000000000000000000000202E1
:103BD000010000000000003F0000000000000000A5
:103BE0000000000000000002000000201010080883
:103BF00004040202010000000E1111111111110E36
:103C000000000000040604040404040E0000000088
:103C10000E1111080402011F000000000E11100C0B
:103C20001010110E00000000080C0C0A091F081CDF
:103C3000000000001F01010F1110110E0000000014
:103C40000C12010D1311110E000000001E100808C7
:103C500004040404000000000E11110E1111110ED5
:103C6000000000000E1111191610090600000000D6
:103C70000000040000000004000000000000000438
:103C800000000004040000001008040202040810F0
:103C90000000000000003F003F00000000000000A6
:103CA0000204081010080402000000000E111108A0
:103CB00004040004000000001C22292D2D1D221CDC
:103CC0000000000004040C0A0A1E12330000000069
:103CD0000F12120E1212120F000000001E1101012D
:103CE0000101110E000000000F1212121212120F29
:103CF000000000001F120A0E0A02121F000000003E
:103D00001F120A0E0A020207000000001C12010125
:103D10003911120C000000003312121E121212335D
:103D2000000000001F0404040404041F000000003D
:103D30003E080808080808080907000037120A06A4
:103D40000A12123700000000070202020202223F9C
:103D5000000000003B1B1B1B151515350000000063
:103D60003B1216161A1A1217000000000E1111113C
:103D70001111110E000000000F12120E02020207B4
:103D8000000000000E1111111117190E180000008B
:103D90000F12120E0A121237000000001E11010647
:103DA0000810110F000000001F1504040404040E85
:103DB00000000000331212121212120C0000000058
:103DC0003312120A0A0C0404000000001515151520
:103DD0000E0A0A0A000000001B0A0A04040A0A1B51
:103DE000000000001B0A0A0A0404040E0000000080
:103DF0001F0908040402121F00001C040404040428
:103E0000040404041C00000202040404080808104E
:103E100010000E0808080808080808080E00040A20
:103E20000000000000000000000000000000000092
:103E300000000000003F020400000000000000003D
:103E4000000000000000000C121C123C00000003E7
:103E50000202020E1212120E000000000000001CEE
:103E60001202120C000000181010101C1212123C4A
:103E7000000000000000000C121E021C00000018D0
:103E80002404041E0404041E000000000000003C82
:103E9000120C021C221C00030202020E1212123724
:103EA00000000004040000060404040E00000008E2
:103EB0000800000C08080808080700030202021A9C
:103EC0000A060A1300000007040404040404041F83
:103ED000000000000000000F15151515000000007F
:103EE0000000000F12121237000000000000000C4A
:103EF0001212120C000000000000000F1212120E2D
:103F0000020700000000001C1212121C10380000F2
:103F10000000001B06020207000000000000001E57
:103F2000020C101E000000000004041E0404041C07
:103F3000000000000000001B1212123C00000000F4
:103F40000000001B0A0A0404000000000000001525
:103F5000150E0A0A000000000000001B0A040A1BDC
:103F6000000000000000003312120C0804030000DF
:103F70000000001E0804041E000018080808080CB1
:103F800008080808180008080808080808080808A9
:103F900008080604040404080404040406001609BE
:103FA0000000000000000000000000000000000011
:103FB00000000000000000000000000000183C3C71
:103FC0003C18180018180000000000000066666623
:103FD000000000000000000000000000006C6CFE0B
:103FE0006C6C6CFE6C6C000000000018183C6606DF
:103FF0000C183060663C1818000000000E1B5B6E49
:1040000030180C76DAD8700000000000001C36363C
:104010001C06F66666DC0000000000000018181898
:104020000000000000000000000000000030181830
:104030000C0C0C0C0C18183000000000000C1818A8
:10404000303030303018180C000000000000006CD8
:1040500038FE386C0000000000000000000000186E
:10406000187E18180000000000000000000000008A
:104070000000000038383018000000000000000088
:10408000007E0000000000000000000000000000B2
:1040900000000000383800000000000000606030C0
:1040A0003018180C0C060600000000000078CCEC5C
:1040B000ECCCDCDCCC780000000000000030383EA6
:1040C000303030303030000000000000003C6666C8
:1040D0006030180C067E000000000000003C6666A0
:1040E00060386066663C000000000000000C0C6C4C
:1040F0006C6C66FE6060000000000000007E06063A
:10410000063E6060301E0000000000000038180C01
:104110003E666666663C000000000000007E60307F
:104120003018180C0C0C000000000000003C666603
:104130006E3C7666663C000000000000003C66664F
:1041400066667C30181C000000000000000000388B
:10415000380000003838000000000000000000387F
:1041600038000000383830180000000000603018B7
:104170000C060C1830600000000000000000000079
:104180007E007E00000000000000000000060C1809
:10419000306030180C06000000000000003C66662D
:1041A000301818001818000000000000007EC3C37B
:1041B000F3DBDBF303FE00000000000000183C66A8
:1041C00066667E666666000000000000003E666669
:1041D000663E6666663E000000000000003C6666C3
:1041E00006060666663C000000000000001E3666FB
:1041F00066666666361E000000000000007E060649
:10420000063E0606067E000000000000007E060650
:10421000063E06060606000000000000003C66663A
:1042200006067666667C0000000000000066666692
:10423000667E66666666000000000000003C181896
:1042400018181818183C000000000000006060609A
:1042500060606066663C0000000000000066663634
:10426000361E3636666600000000000000060606B0
:1042700006060606067E00000000000000C6C6EE28
:10428000D6D6D6C6C6C600000000000000C6C6CE00
:10429000DEF6E6C6C6C6000000000000003C66660A
:1042A00066666666663C000000000000003E6666CA
:1042B000663E06060606000000000000003C66663A
:1042C00066666666663C306000000000003E66661A
:1042D000663E36666666000000000000003C66062A
:1042E0000C183060663C000000000000007E1818CA
:1042F00018181818181800000000000000666666FC
:1043000066666666663C0000000000000066666641
:10431000666666663C1800000000000000C6C6C65F
:10432000D6D6D66C6C6C0000000000000066662CCF
:1043300018183466666600000000000000666666B5
:10434000663C18181818000000000000007E60602D
:1043500030180C06067E000000000000003C0C0C2B
:104360000C0C0C0C0C0C0C0C3C0000000006060C99
:104370000C1818303060600000000000003C303045
:1043800030303030303030303C0000183C660000B7
:10439000000000000000000000000000000000001D
:1043A0000000000000000000FF00001C18300000AA
:1043B0000000000000000000000000000000003CC1
:1043C00060607C66667C0000000000000006063E1F
:1043D00066666666663E0000000000000000003C65
:1043E00066060606663C0000000000000060607C77
:1043F00066666666667C0000000000000000003C07
:1044000066667E06063C00000000000000780C0C8A
:104410000C7E0C0C0C0C0000000000000000007C66
:1044200066666666667C60603E0000000006063ECA
:104430006666666666660000000000001818001ECA
:1044400018181818187E0000000000003030003CDA
:1044500030303030303030301E000000000606664C
:1044600066361E366666000000000000001E181842
:1044700018181818187E0000000000000000007EC8
:10448000D6D6D6D6D6C60000000000000000003EFA
:104490006666666666660000000000000000003C7C
:1044A00066666666663C0000000000000000003E94
:1044B00066666666663E0606060000000000007C32
:1044C00066666666667C60606000000000000066EC
:1044D000760E060606060000000000000000007CC4
:1044E00006063C60603E000000000000000C0C7EF0
:1044F0000C0C0C0C0C7800000000000000000066A2
:1045000066666666667C00000000000000000066CB
:10451000666666663C18000000000000000000C6E9
:10452000D6D6D6D66C6C00000000000000000066F5
:10453000663C183C66660000000000000000006653
:1045400066666666663C30180F0000000000007E5C
:104550006030180C067E00000000000000301818C3
:10456000180C060C18181830000000000018181855
:10457000181818181818181818000000000C181827
:10458000183060301818180C0000000000000000FF
:104590000070D8880000000000000000000000004B
:1045A00000000102030406070809000000000102E0
:1045B0000304DDDDDDDDDCBBBBDDDDDDDDDDDDDD23
:1045C000DDDD988888888888888877777777778806
:1045D0008888855555566666666666666666666848
:1045E0008888833333322222222222222222222846
:1045F000888D000000000000184600080000002020
:10460000C4010000960C000838460008C4010020D0
:1046100034490000442F000802FFFF018334214287
:10462000010212FF4AF4450008F445000801420166
:084630009210031224F40000B3
:040000050800019559
:00000001FF
