:020000040800F2
:10000000E84A0020AD010008D71D0008E1130008F0
:10001000D51D000853030008472200080000000017
:10002000000000000000000000000000091E0008A1
:100030006B03000800000000D91D00080B1E00081B
:10004000C7010008C7010008C7010008C701000870
:10005000C7010008C7010008C7010008C701000860
:10006000C7010008C7010008C7010008C701000850
:10007000C7010008C7010008C7010008C701000840
:10008000C7010008C7010008C70100080000000000
:1000900000000000000000000000000075030008E0
:1000A000C7010008B51E0008C7010008C701000805
:1000B000C7010008C7010008C7010008C701000800
:1000C000C7010008C7010008C7010008C7010008F0
:1000D000C7010008C7010008C701000800000000B0
:1000E0006D030008C7010008C701000800000000F8
:1000F000000000000000000000000000C701000830
:1001000000000000C7010008C7010008C70100087F
:1001100000000000000000000000000000000000DF
:10012000C7010008C7010008C7010008C70100088F
:10013000C7010008000000000000000000000000EF
:10014000000000000000000000000000C7010008DF
:10015000C7010008C7010008C7010008C70100085F
:10016000C7010008C70100080000000000000000EF
:10017000000000000000000000000000000000007F
:1001800000000000C701000800000000000000009F
:10019000C7010008DFF810D000F0ACF800480047B5
:1001A000052B0008AFF30080E84A0020064880478E
:1001B00006480047FEE7FEE7FEE7FEE7FEE7FEE74C
:1001C000FEE7FEE7FEE7FEE7A51E00089501000832
:1001D0002DE9F05F0546002092469B46884606467C
:1001E000814640241BE0284641464746224600F00F
:1001F00070F853465A46C01A914110D3114618461A
:10020000224600F057F82D1A67EB01084F462246A8
:100210000120002100F04EF817EB00094E41201E8E
:10022000A4F10104DFDC484631462A464346BDE8D6
:10023000F09F40EA01039B0703D009E008C9121FA1
:1002400008C0042AFAD203E011F8013B00F8013B90
:10025000521EF9D27047D2B201E000F8012B491EBC
:10026000FBD270470022F6E710B513460A46044653
:100270001946FFF7F0FF204610BD421C10F8011B85
:100280000029FBD1801A704730B50B46014600208B
:100290002022012409E021FA02F59D4205D303FA48
:1002A00002F5491B04FA02F52844151EA2F10102C9
:1002B000F1DC30BD202A04DB203A00FA02F10020F4
:1002C00070479140C2F1200320FA03F31943904094
:1002D0007047202A04DB203A21FA02F000217047FF
:1002E00021FA02F3D040C2F120029140084319469E
:1002F00070470000064C074D06E0E06840F001033F
:1003000094E8070098471034AC42F6D3FFF746FF55
:1003100098360008B836000830B58C1810F8012B54
:1003200012F00F0301D110F8013B120906D110F8A9
:10033000012B03E010F8015B01F8015B5B1EF9D1B2
:1003400001E001F8013B521EFBD1A142E6D300209F
:1003500030BDFEE710B540F2012001F0CFFBBDE853
:10036000104040F2234001F0C9BB70474FF40040F9
:1003700000F038B84FF4807000F034B872B6FEE781
:1003800070B5044600F016F90546601C02D004481A
:100390000078044400F00EF9401BA042FAD370BD6F
:1003A0001000002010B5B0F5004F0AD0B0F5807FE6
:1003B0000ED108A001F048FFBDE810401420FFF75F
:1003C000DFBF01F07BFB0649403808700120487010
:1003D00010BD00005057525F4F4E0D0A0000000044
:1003E00026000020044910B50A68024202D00860C5
:1003F000FFF7D8FF10BD0000143C01402DE9F84F75
:10040000DFF87C91002209F1040A0AF1040B0327AA
:100410004FF00F0C0BF1040E01250B6895402B409B
:10042000AB426ED10C7904F00304012C01D0022CF4
:1004300015D18668540007FA04F826EA0806D1F8B0
:100440000C8008FA04F848EA0608C0F808804468F6
:10045000AC430D79C5F300159540254345600C79F3
:10046000E443A40708D0C568540007FA04F6B5436E
:100470008E68A6402E43C6600C7904F00304022C5B
:1004800011D1D40800EB8406356A5407E40E0CFA47
:1004900004F825EA0805D1F8108008FA04F848EABB
:1004A0000508C6F820800568540007FA04F6B5432D
:1004B0000E7906F00306A6402E4306604C6814F43D
:1004C000403F57D02F4C256845F48045256024686F
:1004D00022F0030504F4804400942B4C05EB04083F
:1004E000D8F808589407260F0CFA06F4A543274CB1
:1004F000A04201D1002415E0254CA04202D10124E4
:1005000010E037E0234CA04201D102240AE0224C43
:10051000A04201D1032405E0204CA04201D10424D3
:1005200000E00724B4402C43C8F80848D9F800403C
:100530004D464E689C43F60300D51C432C60DAF808
:10054000004055464E689C43B60300D51C432C60C2
:10055000DBF800405D464E689C43F60200D51C4324
:100560002C60DEF8004075464E689C43B60200D50C
:100570001C432C60521C102AFFF44EAFBDE8F88FCC
:10058000003C01404438024000300140000002407D
:100590000004024000080240000C0240001002402B
:1005A0000069084000D0012070470AB1816170479E
:1005B0000904FBE701488068704700001000002034
:1005C00002488168491C81607047000010000020CB
:1005D0000B4810B5016841F400710160016841F4F5
:1005E00080610160016841F480710160032000F0C6
:1005F0006FF8002000F006F800F024F8002010BD8D
:10060000003C024070B50D4D04464FF47A712878D5
:10061000B1FBF0F00A490968B1FBF0F000F000FB13
:1006200048B9102C07D200222146501E00F030F8A5
:1006300000206C6070BD012070BD00001000002023
:100640001C0000200A4808B5016841F4804101609F
:10065000006800F4804000900548001F016841F0E8
:1006600080510160006800F08050009008BD0000DB
:1006700044380240002809DB00F01F0201219140AC
:100680004009800000F1E020C0F800117047000030
:10069000F0B40E4B1B68C3F30223C3F10704042C10
:1006A00000D904241D1D072D01D2002300E0DB1E0C
:1006B000012606FA04F56D1E0D409D409E40761EF3
:1006C000164045EA0601F0BC01F0CEBD0CED00E09D
:1006D000064A00F0070110684FF6FF03184040EA91
:1006E0000120034908431060704700000CED00E052
:1006F0000000FA052DE9F0470D46040065D0DFF84B
:100700001491D9F80000EFB200F00700A84207D218
:1007100089F80070D9F8000000F00700A84254D111
:1007200020683D4E810712D5400703D5306840F45C
:10073000E05030602078000703D5306840F4604016
:1007400030603068A16820F0F00008433060207805
:10075000C0072DD0304960680839012812D002281E
:1007600013D0032811D00968890700292DDA3168D0
:1007700021F0030101433160FFF71CFF804641F285
:10078000883A0EE009688903EFE709688901ECE718
:10079000FFF710FFA0EB0801514502D90320BDE887
:1007A000F0873068616800F00C00B0EB810FEFD18A
:1007B000D9F80010484601F00701A94207D907708F
:1007C000006800F00700A84201D00120E7E7207888
:1007D000400705D53068E16820F4E05008433060F8
:1007E0002078000706D53068216920F4604040EA8F
:1007F000C100306000F038F83168084AC1F30311D5
:10080000515CC8400649086006480068FFF7FAFED8
:100810000020C4E7003C024008380240182C0008C1
:100820001C000020140000200448054900680968E5
:10083000044AC1F38221515CC84070471C0000206B
:1008400008380240282C0008044805490068096857
:10085000044AC1F34231515CC84070471C0000207B
:1008600008380240282C0008154810B5006810F020
:100870000C01144813D0431004290FD008290ED1BD
:100880000F4C241F216801F03F022168490207D55F
:100890002068C0F38810A0FB030106E0184610BDD5
:1008A0002168C1F38811A1FB00010023FFF790FC30
:1008B0002168C1F30141491C4900B0FBF1F010BDB2
:1008C000083802400024F4002DE9F84F040075D0E8
:1008D0002078DFF838A3C007AAF1040548D00AF150
:1008E00004000168C1F38101012908D00068C0F348
:1008F000810002280AD1DAF80000400206D52868F3
:10090000800335D560680028E1D031E06068B0F53B
:10091000803F10D0B0F5A02F286810D020F4803090
:100920002860286820F4802028606068A0B1FFF764
:1009300041FE06460CE0286840F48030F4E740F4BD
:1009400080202860F7E7FFF735FE801B642871D808
:1009500028688003F7D50BE0FFF72CFE064604E07D
:10096000FFF728FE801B6428F1D828688003F7D49D
:100970002078DFF89C9280074FF0000B3DD5A3480C
:10098000001D016811F00C0F08D00068C0F3810051
:1009900002280AD1DAF80000400206D4286880074D
:1009A00015D5E068012809D111E0E068B8B101204F
:1009B000C9F80000FFF7FEFD064605E022E1FFF75B
:1009C000F9FD801B0228C2D828688007F7D528685F
:1009D000216920F0F80040EAC10028600DE0C9F864
:1009E00000B0FFF7E7FD064604E0FFF7E3FD801BDC
:1009F00002281FD828688007F7D42078000722D55E
:100A0000824F84486169703771B101210160FFF73D
:100A1000D1FD064604E0FFF7CDFD801B022809D872
:100A200038688007F7D50EE0C0F800B0FFF7C2FDC8
:100A3000064605E082E0FFF7BDFD801B02287DD859
:100A400038688007F7D42078400765D56F484FF0A5
:100A500000083C300068C0000BD46C483C30016892
:100A600041F08051016000684FF0010800F08050B3
:100A70000090694F3868C0050FD4386840F4807022
:100A80003860FFF797FD064604E0FFF793FD801BF3
:100A9000022853D83868C005F7D55C4FA0686C377A
:100AA00001280FD00528386810D020F001003860E8
:100AB000386820F004003860A068B0B1FFF77AFD14
:100AC00006460EE0386840F00100F4E740F004000C
:100AD0003860F7E7FFF76EFD811B41F288308142F5
:100AE00063D838688007F5D50DE0FFF763FD06464B
:100AF00006E0FFF75FFD811B41F28830814254D848
:100B000038688007F5D4B8F1000F05D03F483C3075
:100B1000016821F080510160A069B8B33B49091D0B
:100B20000968C1F38101022946D00228584606D03F
:100B3000C9F86000FFF73EFD044639E035E04F4656
:100B4000C9F86000FFF736FD064604E0FFF732FD06
:100B5000801B022829D828688001F7D4D4E907012E
:100B60000843A16A2D4A490802EB0141626A41EA41
:100B70008211084394F82C1040EA0161CAF8001071
:100B800001203866FFF716FD044605E03CE0FFF75C
:100B900011FD001B022808D828688001F7D533E032
:100BA000FFF708FD001B022802D90320BDE8F88FDB
:100BB00028688001F4D427E00128F7D0DAF8000093
:100BC000E26900F4800191421CD1226A00F03F01E9
:100BD000914217D147F6C071626A0140B1EB821FA2
:100BE00010D1A26A4FF0FF3300F4403103EB520200
:100BF000B1EB024F06D194F82C1000F07060B0EB0E
:100C0000016F01D00120D1E70020CFE70438024076
:100C100000004742800E4742007000400000FFFF86
:100C200010B5401EB0F1807F01D3012010BD4FF000
:100C3000E02460610F21601701F016FB0020A06125
:100C400007202061002010BD7047704770B590F8F4
:100C50003C20012A2CD0012580F83C50022280F84B
:100C60003D2002685368946823F070060B68334394
:100C70005360104B02689A420ED0B2F1804F0BD0F5
:100C80000D4B9A4208D00D4B9A4205D00C4B9A421C
:100C900002D00C4B9A4204D1496824F080031943D6
:100CA000916080F83D50002180F83C10084670BDEE
:100CB000022070BD00000140000400400008004018
:100CC000000C00400040014010B5040003D094F82F
:100CD0003D0010B107E0012010BD002084F83C0069
:100CE000204600F01FF8022084F83D00211D2068F6
:100CF00001F0E6F8012084F8460084F83E0084F80C
:100D00003F0084F8400084F8410084F8420084F8F1
:100D1000430084F8440084F8450084F83D00002036
:100D200010BD000008B50068104A1149904211D169
:100D3000086840F4003008600868002200F40030C1
:100D4000009003211920FFF7A3FCBDE808401920FB
:100D5000FFF790BC074A904207D1086840F4802012
:100D60000860086800F48020009008BD004401403D
:100D7000443802400048014090F83D10012901D05C
:100D800001207047022180F83D1000680E4988421A
:100D90000ED0B0F1804F0BD00C49884208D00C49DE
:100DA000884205D00B49884202D00B49884204D1C1
:100DB000816801F00701062903D0016841F00101B3
:100DC0000160002070470000000001400004004066
:100DD00000080040000C00400040014090F83D1029
:100DE000012901D001207047022180F83D100168DF
:100DF000CA6842F00102CA6000680E4988420ED0FB
:100E0000B0F1804F0BD00C49884208D00B49884282
:100E100005D00B49884202D00A49884204D1816832
:100E200001F00701062903D0016841F001010160CA
:100E3000002070470000014000040040000800400E
:100E4000000C00400040014001680A6A41F21113A1
:100E50001A4207D10A6A9B101A4203D10A6822F08B
:100E600001020A60012180F83D10002070477047A0
:100E700070B50446006801694FF00005C943890751
:100E800015D4C168C943890711D4E91E0161012045
:100E90002077206880698007204602D0FFF7E7FFAF
:100EA00004E000F0C1F8204600F064F925772068DE
:100EB0000169C943490717D4C168C943490713D415
:100EC0006FF004010161022020772068806910F42E
:100ED000407F204602D0FFF7CAFF04E000F0A4F8EC
:100EE000204600F047F9257720680169C9430907C2
:100EF00016D4C168C943090712D46FF00801016113
:100F0000042020772068C0698007204602D0FFF7C0
:100F1000AEFF04E000F088F8204600F02BF92577BA
:100F200020680169C943C90617D4C168C943C90605
:100F300013D46FF010010161082020772068C06988
:100F400010F4407F204602D0FFF791FF04E000F04C
:100F50006BF8204600F00EF9257720680169C94337
:100F6000C90708D1C168C943C90704D1891E0161F5
:100F7000204600F05DF920680169C943090609D4DB
:100F8000C168C943090605D46FF08001016120469C
:100F9000FFF75AFE20680169C943490609D4C168B0
:100FA000C943490605D46FF040010161204600F0B5
:100FB00057F920680169C94389060BD4C168C94340
:100FC000890607D46FF0200101612046BDE870401A
:100FD000FFF73BBE70BD000010B586B0044614217B
:100FE0006846FFF73FF92068B0F1804F15D10C48F3
:100FF0000021026842F001020260006800F0010076
:101000000590072000900220CDE901010120CDE9E3
:10101000031069460348FFF7F1F906B010BD000060
:101020003038024000000240704770B5044690F826
:101030003C0000260D4601280FD0012084F83C001A
:101040006AB1042A1DD0082A2FD00C2A3FD00126CD
:10105000002084F83C00304670BD022070BD20683E
:1010600000F088FF2068816941F0080181612068F3
:10107000816921F004018161206881692A69114335
:1010800011E0206800F0A2FF2068816941F400614E
:1010900081612068816921F48061816120688169B2
:1010A0002A6941EA02218161D2E7206800F0BCFF91
:1010B0002068C16941F00801C1612068C16921F05F
:1010C0000401C1612068C1692A69114311E02068E7
:1010D00000F0D6FF2068C16941F40061C161206859
:1010E000C16921F48061C1612068C1692A6941EA4E
:1010F0000221C161ACE710B5040003D094F83D00B3
:1011000010B107E0012010BD002084F83C0020460B
:1011100000F01EF8022084F83D00211D206800F038
:10112000CFFE012084F8460084F83E0084F83F009A
:1011300084F8400084F8410084F8420084F84300B9
:1011400084F8440084F8450084F83D00002010BD78
:1011500008B50068B0F1804F08D10548016841F03A
:1011600001010160006800F00100009008BD00006E
:10117000403802407047000010B5044649B10429C8
:101180000AD008290BD094F8410001280AD0012088
:1011900010BD94F83E00F8E794F83F00F5E794F8A6
:1011A0004000F2E7022071B3042930D0082931D081
:1011B00084F841000122206800F0CEFE1749206823
:1011C000884203D1426C42F4004242642068884263
:1011D0000ED0B0F1804F0BD01149884208D0114990
:1011E000884205D01049884202D01049884204D173
:1011F000816801F00701062903D0016841F001016F
:101200000160002010BDFFE784F83E00D2E784F8BB
:101210003F00CFE784F84000CCE700000000014029
:101220000004004000080040000C00400040014065
:10123000094910B588420ED1084C2078401CC0B234
:101240002070042803D100F0EFFB00202070BDE8DF
:10125000104001F057BB10BDFC0100200000002031
:10126000704770B5040004D094F83D00002510B11B
:1012700006E0012070BD84F83C50204600F022F8C2
:10128000242084F83D002068C16821F40051C16029
:10129000204600F017FF2068016921F490410161A8
:1012A0002068416921F02A0141612068C16841F448
:1012B0000051C1602564202084F83D0084F83E0080
:1012C000002070BD10B586B0044614216846FEF7B4
:1012D000C9FF14492068884221D1134800210268BF
:1012E00042F010020260006800F0100005900E4805
:1012F0001438026842F001020260006800F0010048
:1013000005904FF4C06000900220CDE90101032058
:1013100003900720049069460448FFF76FF806B071
:1013200010BD00000010014044380240000002409F
:101330002DE9F843044690F83D001F4615460E4639
:1013400020284BD1C6B1BDB194F83C00012845D04E
:10135000012084F83C004FF00008C4F840802120B0
:1013600084F83D00FFF726F9A5848146E584A0684E
:10137000B0F5805F03D004E00120BDE8F883206968
:1013800020B13546002684F83C800EE00025FAE7BF
:101390008021204600F01CFFA0B9ADB115F8010B6B
:1013A00021684860E08C401EE084E08C4B464FF0A2
:1013B000000200970028EBD14FF04001204600F0DA
:1013C00007FF30B10320D8E736F8020BC0F308005E
:1013D000E6E7202084F83D000020CEE70220CCE79D
:1013E000FEE700002DE9F04385B08046002414217B
:1013F0006846FEF737FF00204FF40076CDE9006025
:10140000294F69463846FEF7F9FFB14600253E46AA
:10141000BF15002239463046FFF7C7F8012001F01A
:101420001FF8012239463046FFF7BFF8012001F0CE
:1014300017F86006040E49463046FFF7B1F808B1C8
:10144000641CE4B2012001F00BF86D1CEDB2082D14
:10145000DFD3B8F1000F4FF00002394630461CD000
:10146000FFF7A3F800F0BAFC002249463046FFF728
:101470009CF8012000F0F4FF012239463046FFF7C6
:1014800094F8012000F0ECFF002239463046FFF7C7
:101490008CF805B02046BDE8F083FFF786F800F031
:1014A0009DFC0122E1E70000000402402DE9F0412B
:1014B000054600F093FC174F4FF48076002231462A
:1014C0003846FFF772F800244FF40078280601D55B
:1014D000012200E0002241463846FFF766F8680620
:1014E000050E012000F0BCFF012231463846FFF70F
:1014F0005CF8012000F0B4FF002231463846FFF7C7
:1015000054F8012000F0ACFF641CE4B2082CDDD3D9
:10151000BDE8F0810004024070B500F05FFC0122DC
:10152000104D140221462846FFF73FF801225602CB
:1015300031462846FFF739F8012000F091FF0022DC
:1015400031462846FFF731F8012000F089FF0022DC
:1015500021462846FFF729F8BDE87040012000F039
:101560007FBF000000040240044A00214FF4C07312
:101570005054491C89B29942FAD370472800002080
:101580002DE9FE4F0026A2EB000882465F1A701E6E
:1015900035468946B8F1000F02DD4FF0010102E047
:1015A00003D14FF00001019102E0C8F10008019061
:1015B000002F02DD4FF0010002E003D14FF00000E8
:1015C000009002E0C7F1000700904046B84501DDF9
:1015D000044600E03C46601C4FF0000B029017E010
:1015E0000C9809F0FF01C2B20AF0FF0000F016F8F3
:1015F00046443D44A64202DD0199361B8A44A54279
:1016000002DD00992D1B89440BF101001FFA80FBBC
:1016100002998B45E4DDBDE8FE8F000010B560281F
:1016200011D220290FD2CB0803EB430300EB431068
:10163000054C802301F00701CB40215C0AB119431E
:1016400000E09943215410BD280000202DE9F0410D
:10165000134F0025EE2000F091F8C5F10300C0B251
:1016600040F0B00000F08AF8122000F087F8042063
:1016700000F084F8E02000F081F8002405EB450636
:1016800004EB4610385C00F0A7F8641CE4B2602C50
:10169000F6D36D1CEDB2042DDCD3BDE8F081000063
:1016A0002800002070B5344D4FF40054002221462C
:1016B0002846FEF77AFF0220FEF762FE012221464D
:1016C0002846FEF772FF002261102846FEF76DFFE4
:1016D000E22000F053F81420FEF752FEAE2000F096
:1016E0004DF8F82000F04AF8002000F047F8A2205A
:1016F00000F044F8A02000F041F8C02000F03EF8CF
:10170000A62000F03BF8A42000F038F8E02000F01C
:1017100035F8AC2000F032F8002000F02FF821203E
:1017200000F02CF8812000F029F81E2000F026F8A7
:101730002F2000F023F8402000F020F8AF2000F028
:101740001DF8B02000F01AF8122000F017F804205D
:1017500000F014F8E02000F011F8E02000F00EF89E
:101760000520FEF70DFE00F0EDF80020FFF7FCFE6F
:10177000BDE87040FFF76ABF0004024070B5144C2A
:10178000064600224FF480412046FEF70EFF01225C
:1017900040211048FEF709FF4FF40045002229467A
:1017A0002046FEF702FF052000F05AFE084A1432D8
:1017B000106800F47F403044106001222946204622
:1017C000FEF7F3FEBDE87040052000F049BE0000C2
:1017D000000402400008024070B5134C0646012286
:1017E00091032046FEF7E1FE012240210F48FEF75B
:1017F000DCFE4FF40045002229462046FEF7D5FEC8
:10180000052000F02DFE084A1432106800F47F40D5
:1018100030441060012229462046FEF7C6FEBDE88E
:101820007040052000F01CBE000402400008024089
:101830002DE9F04F203A8B46814602EB42004FF6ED
:10184000FF71DFF850A0984601EA800600250024C9
:101850000BEB05071AF80600E040C00702D008F0BD
:10186000FF0203E0B8F1000F12D0002209EB0400E0
:10187000F9B2C0B2FFF7D2FE641CA4B2062CE9D3C1
:10188000761C6D1CADB2B6B20C2DE0D3BDE8F08F66
:101890000122EBE7302C00082DE9F04F81461001C2
:1018A000A0F50070DFF840809A468B4686B200258E
:1018B00000240BEB050718F80600E040C00707D02E
:1018C00009EB04000AF0FF02F9B2C0B2FFF7A6FE6E
:1018D000641CA4B2082CEED3761C6D1CADB2B6B25B
:1018E000102DE5D3BDE8F08FA43000082DE9F043BA
:1018F0001D461646894607460024DDF81C801CE07C
:10190000802A17D2102E02D00C2E16D108E03819DA
:1019100080B2434649466D1CFFF7BEFF083407E01E
:10192000381980B2434649466D1CFFF781FFA41D5C
:10193000A4B202E01034A4B2AD1C2A78002ADFD190
:10194000BDE8F08310B50021012000F042F800212D
:10195000052000F03EF80021092000F03AF80021AF
:101960000E2000F036F80021132000F032F800219C
:101970001B2000F02EF80021232000F02AF800217F
:101980002C2000F026F80021312000F022F8002160
:10199000372000F01EF800213B2000F01AF800214B
:1019A000432000F016F80021482000F012F8002132
:1019B0004E2000F00EF80021542000F00AF800211B
:1019C000562000F006F80021BDE810405C20AFF37F
:1019D000008070B52430C4B20D46EE20FFF7CEFE75
:1019E000B820FFF7CBFE102040EA1410FFF7C6FE28
:1019F00004F00F00FFF7C2FEE020FFF7BFFE28460D
:101A0000BDE87040FFF7E8BE0249C0F16300096815
:101A1000C8637047B40100200249C0F1630009683F
:101A200048637047B401002030B51F49CA1E0B78C7
:101A300010780BB1401C00E0401E10701A484B7823
:101A4000C01E40780BB1401C00E0401E507016488C
:101A50008B78C01E80780BB1401C00E0401E907057
:101A6000107800240125632801D010B102E00C7029
:101A700000E00D705378632B01D013B102E04C707D
:101A800000E04D709378632B01D013B102E08C70AD
:101A900000E08D70FFF7C0FF507800F007F89078F5
:101AA000BDE83040FFF7B0BF230000200249C0F17D
:101AB0006300096888637047B401002070B5FFF7C0
:101AC0002BFD6F20FFF7F2FC01220B4D1402214683
:101AD0002846FEF76AFD012000F0C2FC00222146E4
:101AE0002846FEF762FD012000F0BAFCBDE8704018
:101AF0000020FFF777BC0000000402402DE9F04110
:101B00000446FFF709FDE009C0F34400602141EA03
:101B10004000FFF7CBFC01221F4E550229463046FC
:101B2000FEF743FD012000F09BFC0122170239461D
:101B30003046FEF73AFD012000F092FC00223946C3
:101B40003046FEF732FD002229463046FEF72DFDD5
:101B5000E0B2FFF7ABFC00F041F900223946304615
:101B6000FEF723FD002229463046FEF71EFD012028
:101B700000F076FC012239463046FEF716FD0122C0
:101B800029463046FEF711FD012000F069FCBDE852
:101B9000F041642000F064BC000402402DE9F041F3
:101BA00086B014216846FEF75DFB3A4800240168C0
:101BB00041F080010160016801F080010591016838
:101BC00041F001010160016801F001010591016826
:101BD00041F004010160016801F004010591016810
:101BE00041F00201016000682B4F00F002004FF24B
:101BF000FF350590002229463846FEF7D6FCDFF86F
:101C00009C80002240214046FEF7CFFC1020CDE909
:101C100000040220029069464046FEF7EFFB009563
:101C2000032601250396CDE9015469463846FEF79F
:101C3000E5FB4020CDE90005CDE902466946404676
:101C4000FEF7DCFB28024FF404160090CDE9016595
:101C5000134D69462846FEF7D1FB4FF40040CDE90D
:101C60000006694602942846FEF7C8FB00220121BF
:101C70001720FEF70DFD1720FEF7FCFC00220221C5
:101C80002820FEF705FD2820FEF7F4FC06B0BDE88D
:101C9000F081000030380240000402400008024099
:101CA000000002400B4810B50949016042F2CF0123
:101CB000416000213122C0E9021201618161FFF718
:101CC00003F8002803D0BDE81040FEF757BB10BD55
:101CD00000440140FC0100200B4810B50949016097
:101CE0005321416000214FF6FF72C0E902120161E9
:101CF0008161FEF7E9FF002803D0BDE81040FEF740
:101D00003DBB10BD004801404402002030B589B001
:101D1000002407941C2168460894FEF7A3FA1E4885
:101D20004FF08041632502C040F2473132C080212C
:101D300040F8104981611848FFF7DDF908B1FEF756
:101D40001DFB079407A914480894FEF77FFF08B10C
:101D5000FEF714FB60200090CDE901540022694693
:101D60000D480494FFF761F908B1FEF707FB042260
:101D700069460948FFF759F908B1FEF7FFFA08224A
:101D800069460548FFF751F908B1FEF7F7FA02482E
:101D9000FFF722F909B030BDB40100200C4810B59E
:101DA0000A4901604FF4E1314160002181600C2259
:101DB000C160C0E904128161C161FFF752FA0028D5
:101DC00003D0BDE81040FEF7D9BA10BD00100140A5
:101DD0008C020020FEE7FEE77047000000B585B0EA
:101DE00014216846FEF73EFA01200190029002207D
:101DF00003900002009069460248FEF7FFFA05B022
:101E000000BD0000000402407047FEF7D9BB00008F
:101E100030B593B030216846FEF724FA14210CA89F
:101E2000FEF720FA1D480025016841F0805101604D
:101E3000006800F0805011901948016821F4404179
:101E400041F4004101600068022400F44040119018
:101E500001200090000401908001CDE9064008AA0D
:101E60000420542182E813000B906846FEF72CFDF5
:101E700008B172B6FEE70CA90F2081E831004FF4DB
:101E80008050CDE90F0502210CA8FEF733FC002895
:101E900001D072B6FEE713B030BD000040380240FA
:101EA000007000400248016841F470010160704711
:101EB00088ED00E00148FEF7DBBF0000FC010020D8
:101EC000F0B502681D4C1E4D1E4E1F4F4FF0804C4A
:101ED000A04207D0604505D0A84203D0B04201D04F
:101EE000B84203D122F070034A681A43A04210D0CE
:101EF00060450ED0A8420CD0B0420AD0B84208D0FB
:101F0000124B984205D0124B984202D0114B984286
:101F100003D122F44073CA681A434B6922F080024D
:101F20001A4302608A68C2620A688262A04201D1D2
:101F30000969016301214161F0BD00000000014019
:101F40000004004000080040000C00400040014038
:101F5000004401400048014010B501F01F01012379
:101F6000046A8B409C430462036A8A401343036201
:101F700010BD000030B5026A22F001020262036A5D
:101F80004268846924F073050C682C4323F0020531
:101F90008B682B430C4DA84206D123F00805CB6873
:101FA00043EA050323F0040307D14D6922F440728C
:101FB00045EA02058A6942EA05024260846149688D
:101FC0004163036230BD00000000014030B5026A89
:101FD00022F010020262026A436884690D6824F4E8
:101FE000E64444EA05248D6822F0200242EA051204
:101FF0000C4DA84206D1CD6822F0800242EA0512BB
:1020000022F0400207D14D6923F4406343EA85037F
:102010008D6943EA85034360846149688163026294
:1020200030BD00000000014030B5026A22F4807229
:102030000262036A4268C46923F4007324F07305E2
:102040000C682C438D6843EA05230C4DA84206D149
:10205000CD6823F4006343EA052323F4806307D1AA
:102060004D6922F4405242EA05128D6942EA051296
:102070004260C4614968C163036230BD0000014031
:1020800030B5026A22F480520262036A4268C4696F
:102090000D6824F4E64444EA05248D6823F40053D3
:1020A00043EA0533064DA84204D14D6922F480422B
:1020B00042EA85124260C46149680164036230BD2E
:1020C0000000014070B5044600680169E26821F42F
:1020D000405111430161A1682069E26901436069CF
:1020E000104301432068C26849F20C639A430A43D3
:1020F000C26020684169A26921F4407111434161C5
:1021000031492068884202D03049884202D1FEF726
:102110009BFB01E0FEF788FBE2690023192164259F
:102120003226B2F5004F626828D0A0FB0101930F60
:102130009200FEF74DF80146B0FBF5F06FF0180283
:10214000504301EB800006EB0010B0FBF5F000F00F
:10215000F002B1FBF5F002EB0012B1FBF5F06FF00D
:102160001803584301EB800006EB0010B0FBF5F0BC
:1021700000F00F0021681044886070BDA0FB0101D1
:1021800092185B41FEF724F80146B0FBF5F002011E
:10219000B1FBF5F06FF01803584301EB800006EB3C
:1021A000C000B0FBF5F000F0F80002EB4002B1FB1C
:1021B000F5F0584301EB800006EBC000B0FBF5F0F2
:1021C00000F00700D6E700000010014000140140B5
:1021D0002DE9F0411E46174688460446069D26E036
:1021E000681C24D025B1FEF7E5F9801BA8421ED952
:1021F00020680C3050E8001F21F4D07140E8001234
:10220000002AF5D12068143050E8001F21F00101A8
:1022100040E80012002AF5D1202084F83D0084F81F
:102220003E00002084F83C000320BDE8F0812068D7
:10223000016838EA010004D00020B842D0D0002064
:10224000F3E70120F9E7FEE70FB4054B10B503A94A
:10225000044A029800F028F810BC5DF814FB000056
:1022600005260008A80100200907090E002804DB44
:1022700000F1E02080F80014704700F00F0000F13A
:10228000E02080F8141D704702E008C8121F08C142
:10229000002AFAD170477047002001E001C1121FE7
:1022A000002AFBD1704700002DE9FF4F8BB09A4602
:1022B0000F460546002606E025280BD052460D990C
:1022C00090476D1C761C28780028F5D10FB0304659
:1022D000BDE8F08F0024A0460122604900E00443DD
:1022E00015F8013F203B02FA03F00842F7D12878A5
:1022F0002E2817D115F8010F44F004042A280ED017
:102300006FF02F022878A0F1300109290AD808EBD4
:10231000880102EB410100EB01086D1CF2E757F860
:10232000048B6D1C287869283ED006DC0028CDD0AF
:1023300063280BD0642804D136E0732810D07528A8
:102340004BD052460D999047761C85E017F8040B48
:102350008DF8000000208DF80100E946012003E01F
:1023600057F8049B4FF0FF3061074FF0000401D491
:102370000AE0641C44450DDA8442FADB19F80410C3
:102380000029F6D106E0641C8442FCDB19F8041035
:102390000029F8D1264404E019F8010B52460D99A2
:1023A0009047641EF8D257E001CF4FF00A0B002887
:1023B00002DA40422D2102E0210504D52B218DF8BF
:1023C0002410012103E0E10705D02021F7E70DF1FA
:1023D000200908910CE00021F9E701CF4FF00A0B2A
:1023E000F9E75946FDF750FF01F1300209F8012DD8
:1023F0000028F6D1ADEB090000F1200B600701D4F5
:102400004FF00108D84502DDA8EB0B0000E00020EA
:102410008046002406E009A85246005D0D999047C9
:10242000641C761C08988442F5DB04E03020524698
:102430000D999047761CB8F10001A8F10108F5DC70
:1024400005E019F8010B52460D999047761CBBF137
:102450000001ABF1010BF4DC6D1C34E7092801002D
:1024600070B54FF6FA75281A84B20B48FEF784FC53
:10247000094A106844620020691D126805E0401C8A
:10248000536A80B29CB2884201D0AC42F7D3BDE817
:1024900070400148FEF7D8BC440200202DE9F0410D
:1024A0000C4605004AD02068FDF7E7FEC6B220685A
:1024B000FDF7E3FE401B401CC7B2384600F076FB38
:1024C00080463946FDF7CEFE20687A1E4119404607
:1024D000FDF7AFFE284600F069FB07462946FDF7E9
:1024E000C1FE6A1E38462168FDF7A3FE206800F091
:1024F00095F8304600F05AFB31462060FDF7B2FEF9
:102500003846FDF7BAFE024639462068FDF791FECF
:102510004046FDF7B2FE05463846FDF7AEFE21689F
:102520002A4608444146FDF784FE404600F076F80E
:10253000384600F073F80020BDE8F0810120FBE789
:102540002DE9F04782461E4615460C460868FDF701
:1025500094FE07465046FDF790FE3844401CC7B233
:10256000B7424DD82068FDF788FE401B401CC6B21C
:10257000304600F01BFB81463146FDF773FE2068B4
:10258000721E41194846FDF754FE6D1CEDB22846F7
:1025900000F00CFB80462946FDF764FE6A1E4046AB
:1025A0002168FDF746FE206800F038F8384600F054
:1025B000FDFA39462060FDF755FE6A1E4146206847
:1025C000FDF737FE5046FDF758FE02462168681EAB
:1025D00008445146FDF72DFE5046FDF74EFE21689A
:1025E000401E29440844721E4946FDF722FE484613
:1025F00000F014F8404600F011F80020BDE8F08724
:102600000120FBE713B54FF6FF730122694602482C
:10261000FEF78EFE00981CBD8C02002010B500282D
:1026200021D0114B0022001F196803E0814203D81A
:102630000A4649680029F9D152B11368841A9C42AC
:1026400004D1006818441060104602E0506000E0B9
:10265000186039B102680B1A934203D10B681A440F
:1026600002604968416010BDAC010020074810B508
:102670004068FFF7D3FF11210548FDF7F3FD00F097
:1026800009F8BDE8104000F0EBB80000040000209D
:10269000D0020020074810B501218170002141704F
:1026A0000170C170084600F081FA0249083948609B
:1026B00010BD00000C00002010B50A78002A71D06F
:1026C00000220A705449182866D00EDC152869D2F9
:1026D000DFE800F0A16F7B9BA1A1A1A1A169758E8C
:1026E000A1A1A1A1A1384A5C870021281AD009DC48
:1026F000A0F11900082855D2DFE800F01E30426D25
:102700008D8D8D0E222823D0232833D02A286ED0F9
:102710002C2847D101210DE04A783F498023091F29
:102720003EA004E04A783C498023091F3CA0FFF703
:1027300007FF0021012064E04A7837498023091F00
:1027400038A0F4E74A7834498023091F36A0EEE721
:102750004A7831498023091F34A0E8E74A782E4996
:102760008023091F32A0E2E74A782B498023091F02
:1027700030A0DCE74A7828498023091F2EA0D6E73D
:102780004A7825498023091F2CA0D0E74A7822499E
:102790008023091F2AA0CAE74A781F498023091FFE
:1027A00028A0C4E737E04A781B498023091F26A0E8
:1027B000BDE74A7818498023091F24A0B7E74A7863
:1027C00015498023091F22A0B1E74A7812498023C6
:1027D000091F20A0ABE74A780F498023091F1EA0DC
:1027E000A5E74A780C498023091F1CA09FE710E049
:1027F00048780949091FFFF751FE00280BD1002135
:102800000020BDE8104000F09DB8BDE81040FFF783
:102810002DBF0121F4E710BD0C00002030000000A6
:1028200031000000320000003300000034000000DE
:1028300035000000360000003700000038000000BE
:10284000390000002E0000002B0000002D000000C9
:102850002A0000002F0000002800000029000000CE
:1028600038B50124002108A30C2208460094FFF784
:102870003DF80021094B0C2208460094FFF736F87A
:10288000BDE83840FEF7E2BE202020202020202096
:10289000202020202020202000000000D002002046
:1028A000F8B50C00054606D100220A230121104686
:1028B0000095FEF765FE124F4FF0FF367878A04284
:1028C0000CD000210091B0B100EB400006EB4000BD
:1028D00082B280B20A230121FEF752FE04EB4400CB
:1028E00006EB40007C7082B280B20A230121009581
:1028F000FEF746FEF8BD00220A2301211046EBE751
:10290000040000200E4810B50D4A80780023083AD4
:1029100098B110780A49401CC0B21070097832286A
:1029200009D064280AD113700020FFF7B9FFBDE871
:102930001040FEF78BBE0120F7E7137010BD0000BA
:102940000C0000202DE9F0414D4E05460F46706801
:10295000FDF793FCC4B24B48FDF78FFC2900C0B2D1
:1029600006F1080523D0102814D1102C12D928788C
:10297000102803D200F10100287010E03ED16878E1
:10298000A04201D2401C6870E878103CA04235DAC1
:10299000401C32E029782FB1814205D32EE06878BF
:1029A000401C0BE0814229D8491C2970F7E72878A0
:1029B00077B128B1401E28706878401E68701DE00D
:1029C0006878D8B1401E6870E878B8B1401E14E04D
:1029D00040B1401E10F0FF0028706978A1F101019C
:1029E00069700BD1E87848B1102803D82870687056
:1029F000002002E0102129701038E87029780120A9
:102A0000FFF74EFFE878702807D87168102201445C
:102A10001C48FDF70EFCFFF723FF1BA0FFF714FC7B
:102A2000E9781DA0FFF710FC1DA0FFF70DFC15496C
:102A30001EA0FFF709FC1FA0FFF706FC1148FDF7D9
:102A40001CFC014620A0FFF7FFFB21A0FFF7FCFBC9
:102A50007068FDF712FC01460FA0FFF7F5FB20A000
:102A6000FFF7F2FB29780CA0FFF7EEFB20A0FFF7A1
:102A7000EBFB6978BDE8F04113A0FFF7E5BB000070
:102A800004000020D0020020696E746572636570D6
:102A9000745F706F733D000025640A0A0000000037
:102AA0004C696E65305F646973703D0025730A0A76
:102AB000000000007374726C656E284C696E65309E
:102AC0005F64697370293D0025640A0A0A000000EA
:102AD0007374726C656E284C696E6530293D000018
:102AE0004C696E6530437572736F72506F733D0041
:102AF0004C696E653045646974437572736F723DDD
:102B00000000000008B5FDF763FDFFF781F9FFF74E
:102B100045F8FFF743F9FFF7F9F8FFF7DDF8FFF79E
:102B2000C1F81748FEF75AF900211648FEF724FBB2
:102B300004211448FEF720FB08211248FEF71CFB75
:102B4000FDF708FCFEF7AEFDFFF7A4FD0124002110
:102B50000DA30C2208460094FEF7C8FE0EA30C221B
:102B60000D2100200094FEF7C1FE0E4D0E4C28787A
:102B70000028FCD00B492078FFF79EFDF7E7000006
:102B8000FC010020B4010020506F7765726564205D
:102B900042792041524D0000436F727465782D4D8B
:102BA000340000002700002026000020F0B50B3084
:102BB000154D20F007010024144A0FE003688B42F2
:102BC0000BD38B4205D95E1A43184768C3E90067E7
:102BD00000E04368136002C004E0021D1068002892
:102BE000ECD12046002802D1286808B10020F0BDB1
:102BF000064A07481060074A121A22F00702C0E985
:102C0000002401202860D7E7B0010020AC0100209B
:102C1000EC020020E8180020000000000000000086
:102C20000102030406070809000000000102030472
:102C3000000000000000000000000000000004048C
:102C4000040404000004000014140A000000000042
:102C50000000000000000A0A1F0A0A1F0A0A0000FA
:102C600000040E1505060C14150E040000001215C4
:102C70000D152E2C2A1200000000040A0A36151524
:102C80002916000002020100000000000000000000
:102C900010080804040404040808100002040408CE
:102CA000080808080404020000000004150E0E15B0
:102CB0000400000000000008083E080800000000B2
:102CC00000000000000000000202010000000000FF
:102CD000003F0000000000000000000000000000B5
:102CE0000002000000201010080804040202010085
:102CF00000000E1111111111110E00000000040648
:102D000004040404040E000000000E111108040263
:102D1000011F000000000E11100C1010110E000019
:102D20000000080C0C0A091F081C000000001F010D
:102D3000010F1110110E000000000C12010D1311F3
:102D4000110E000000001E10080804040404000016
:102D500000000E11110E1111110E000000000E11D5
:102D60001119161009060000000000000400000000
:102D70000004000000000000000400000004040043
:102D80000000100804020204081000000000000007
:102D90003F003F000000000000000204081010087F
:102DA0000402000000000E111108040400040000D9
:102DB00000001C22292D2D1D221C000000000404EF
:102DC0000C0A0A1E1233000000000F12120E12121B
:102DD000120F000000001E1101010101110E000080
:102DE00000000F1212121212120F000000001F1228
:102DF0000A0E0A02121F000000001F120A0E0A0229
:102E00000207000000001C1201013911120C000021
:102E100000003312121E12121233000000001F04B1
:102E200004040404041F000000003E080808080809
:102E300008080907000037120A060A1212370000B4
:102E40000000070202020202223F000000003B1BBA
:102E50001B1B15151535000000003B1216161A1A1B
:102E60001217000000000E1111111111110E0000B7
:102E700000000F12120E02020207000000000E11E5
:102E800011111117190E180000000F12120E0A125C
:102E90001237000000001E1101060810110F00007B
:102EA00000001F1504040404040E00000000331287
:102EB00012121212120C000000003312120A0A0C35
:102EC000040400000000151515150E0A0A0A00007A
:102ED00000001B0A0A04040A0A1B000000001B0A67
:102EE0000A0A0404040E000000001F09080404027A
:102EF000121F00001C0404040404040404041C0045
:102F00000002020404040808081010000E08080853
:102F10000808080808080E00040A00000000000065
:102F20000000000000000000000000000000003F62
:102F3000020400000000000000000000000000008B
:102F4000000C121C123C000000030202020E1212BE
:102F5000120E000000000000001C1202120C000003
:102F600000181010101C1212123C0000000000008B
:102F7000000C121E021C000000182404041E04048D
:102F8000041E000000000000003C120C021C221C69
:102F900000030202020E12121237000000040400A5
:102FA00000060404040E000000080800000C0808D5
:102FB0000808080700030202021A0A060A130000A2
:102FC0000007040404040404041F000000000000BF
:102FD000000F15151515000000000000000F12125B
:102FE0001237000000000000000C1212120C00004A
:102FF00000000000000F1212120E02070000000075
:10300000001C1212121C103800000000001B0602E7
:103010000207000000000000001E020C101E00004D
:1030200000000004041E0404041C00000000000052
:10303000001B1212123C000000000000001B0A0AD4
:1030400004040000000000000015150E0A0A00002C
:1030500000000000001B0A040A1B00000000000022
:10306000003312120C08040300000000001E0804C4
:10307000041E000018080808080C080808081800B2
:1030800008080808080808080808080806040404CE
:1030900004080404040406001609000000000000EF
:1030A0000000000000000000000000000000000020
:1030B00000000000000000183C3C3C1818001818E4
:1030C00000000000000000666666000000000000CE
:1030D000000000000000006C6CFE6C6C6CFE6C6C00
:1030E000000000000018183C66060C183060663CB2
:1030F0001818000000000E1B5B6E30180C76DAD832
:10310000700000000000001C36361C06F66666DC07
:103110000000000000000018181800000000000067
:10312000000000000000003018180C0C0C0C0C18EB
:10313000183000000000000C181830303030301803
:10314000180C000000000000006C38FE386C000015
:1031500000000000000000000018187E1818000091
:1031600000000000000000000000000000003838EF
:1031700030180000000000000000007E0000000089
:1031800000000000000000000000000000003838CF
:10319000000000000000006060303018180C0C06C1
:1031A0000600000000000078CCECECCCDCDCCC7835
:1031B0000000000000000030383E30303030303049
:1031C000000000000000003C66666030180C067EBF
:1031D000000000000000003C666660386066663CE7
:1031E000000000000000000C0C6C6C6C66FE60605F
:1031F000000000000000007E0606063E6060301EF3
:103200000000000000000038180C3E666666663C50
:10321000000000000000007E60303018180C0C0C1C
:10322000000000000000003C66666E3C7666663C6E
:10323000000000000000003C666666667C30181CDA
:10324000000000000000000000383800000038389E
:10325000000000000000000000383800000038388E
:10326000301800000000006030180C060C183060A8
:10327000000000000000000000007E007E00000052
:1032800000000000000000060C18306030180C062A
:10329000000000000000003C666630181800181896
:1032A000000000000000007EC3C3F3DBDBF303FE7D
:1032B00000000000000000183C6666667E666666D8
:1032C000000000000000003E6666663E6666663EE0
:1032D000000000000000003C666606060666663CCC
:1032E000000000000000001E366666666666361E38
:1032F000000000000000007E0606063E0606067E70
:10330000000000000000007E0606063E06060606D7
:10331000000000000000003C666606067666667CDB
:1033200000000000000000666666667E66666666EF
:10333000000000000000003C181818181818183C6D
:103340000000000000000060606060606066663C35
:1033500000000000000000666636361E36366666DF
:103360000000000000000006060606060606067EAF
:1033700000000000000000C6C6EED6D6D6C6C6C6FF
:1033800000000000000000C6C6CEDEF6E6C6C6C6D7
:10339000000000000000003C666666666666663CEB
:1033A000000000000000003E6666663E0606060657
:1033B000000000000000003C666666666666663CCB
:1033C000306000000000003E6666663E3666666657
:1033D000000000000000003C66060C183060663CEF
:1033E000000000000000007E18181818181818189F
:1033F0000000000000000066666666666666663C61
:1034000000000000000000666666666666663C189E
:1034100000000000000000C6C6C6D6D6D66C6C6C94
:103420000000000000000066662C1818346666660E
:1034300000000000000000666666663C1818181858
:10344000000000000000007E606030180C06067E60
:10345000000000000000003C0C0C0C0C0C0C0C0CD0
:103460000C0C3C0000000006060C0C1818303060F4
:10347000600000000000003C303030303030303030
:1034800030303C0000183C660000000000000000E6
:10349000000000000000000000000000000000002C
:1034A0000000FF00001C18300000000000000000B9
:1034B0000000000000000000003C60607C66667C4C
:1034C0000000000000000006063E66666666663E76
:1034D0000000000000000000003C66060606663C96
:1034E0000000000000000060607C66666666667C26
:1034F0000000000000000000003C66667E06063CFE
:1035000000000000000000780C0C0C7E0C0C0C0C71
:103510000000000000000000007C66666666667CB5
:1035200060603E0000000006063E666666666666EF
:103530000000000000001818001E18181818187E47
:103540000000000000003030003C303030303030BF
:1035500030301E0000000006066666361E366666BF
:10356000000000000000001E181818181818187E17
:103570000000000000000000007ED6D6D6D6D6C6D9
:103580000000000000000000003E66666666666699
:103590000000000000000000003C66666666663CB5
:1035A0000000000000000000003E66666666663EA1
:1035B0000606060000000000007C66666666667C03
:1035C00060606000000000000066760E06060606D9
:1035D0000000000000000000007C06063C60603E29
:1035E000000000000000000C0C7E0C0C0C0C0C7891
:1035F0000000000000000000006666666666667CEB
:1036000000000000000000000066666666663C1868
:10361000000000000000000000C6D6D6D6D66C6CB4
:1036200000000000000000000066663C183C666672
:103630000000000000000000006666666666663CEA
:1036400030180F0000000000007E6030180C067E6D
:1036500000000000000000301818180C060C1818A4
:10366000183000000000001818181818181818183A
:10367000181818000000000C1818183060301818BE
:10368000180C00000000000000000070D888000046
:103690000000000000000000B83600080000002014
:1036A000B401000018030008D0360008B40100205F
:1036B00034490000982200089155943600084201D0
:1036C00092103324F43421420104FFFF00FF018EE5
:040000050800019559
:00000001FF
